{
  "abi": [
    {
      "inputs": [],
      "stateMutability": "nonpayable",
      "type": "constructor"
    },
    {
      "anonymous": false,
      "inputs": [
        {
          "indexed": false,
          "internalType": "address",
          "name": "oldGuardian",
          "type": "address"
        },
        {
          "indexed": false,
          "internalType": "address",
          "name": "newGuardian",
          "type": "address"
        }
      ],
      "name": "GuardianChanged",
      "type": "event"
    },
    {
      "inputs": [
        {
          "internalType": "bytes32",
          "name": "_key",
          "type": "bytes32"
        },
        {
          "internalType": "u60x18_t",
          "name": "_amount",
          "type": "uint256"
        }
      ],
      "name": "addUD60x18",
      "outputs": [],
      "stateMutability": "nonpayable",
      "type": "function"
    },
    {
      "inputs": [
        {
          "internalType": "bytes32",
          "name": "_key",
          "type": "bytes32"
        },
        {
          "internalType": "uint256",
          "name": "_amount",
          "type": "uint256"
        }
      ],
      "name": "addUint",
      "outputs": [],
      "stateMutability": "nonpayable",
      "type": "function"
    },
    {
      "inputs": [],
      "name": "confirmGuardian",
      "outputs": [],
      "stateMutability": "nonpayable",
      "type": "function"
    },
    {
      "inputs": [
        {
          "internalType": "bytes32",
          "name": "_key",
          "type": "bytes32"
        }
      ],
      "name": "deleteAddress",
      "outputs": [],
      "stateMutability": "nonpayable",
      "type": "function"
    },
    {
      "inputs": [
        {
          "internalType": "bytes32",
          "name": "_key",
          "type": "bytes32"
        }
      ],
      "name": "deleteBool",
      "outputs": [],
      "stateMutability": "nonpayable",
      "type": "function"
    },
    {
      "inputs": [
        {
          "internalType": "bytes32",
          "name": "_key",
          "type": "bytes32"
        }
      ],
      "name": "deleteBytes",
      "outputs": [],
      "stateMutability": "nonpayable",
      "type": "function"
    },
    {
      "inputs": [
        {
          "internalType": "bytes32",
          "name": "_key",
          "type": "bytes32"
        }
      ],
      "name": "deleteBytes32",
      "outputs": [],
      "stateMutability": "nonpayable",
      "type": "function"
    },
    {
      "inputs": [
        {
          "internalType": "bytes32",
          "name": "_key",
          "type": "bytes32"
        }
      ],
      "name": "deleteInt",
      "outputs": [],
      "stateMutability": "nonpayable",
      "type": "function"
    },
    {
      "inputs": [
        {
          "internalType": "bytes32",
          "name": "_key",
          "type": "bytes32"
        }
      ],
      "name": "deleteString",
      "outputs": [],
      "stateMutability": "nonpayable",
      "type": "function"
    },
    {
      "inputs": [
        {
          "internalType": "bytes32",
          "name": "_key",
          "type": "bytes32"
        }
      ],
      "name": "deleteUD60x18",
      "outputs": [],
      "stateMutability": "nonpayable",
      "type": "function"
    },
    {
      "inputs": [
        {
          "internalType": "bytes32",
          "name": "_key",
          "type": "bytes32"
        }
      ],
      "name": "deleteUint",
      "outputs": [],
      "stateMutability": "nonpayable",
      "type": "function"
    },
    {
      "inputs": [
        {
          "internalType": "bytes32",
          "name": "_key",
          "type": "bytes32"
        }
      ],
      "name": "getAddress",
      "outputs": [
        {
          "internalType": "address",
          "name": "r",
          "type": "address"
        }
      ],
      "stateMutability": "view",
      "type": "function"
    },
    {
      "inputs": [
        {
          "internalType": "bytes32",
          "name": "_key",
          "type": "bytes32"
        }
      ],
      "name": "getBool",
      "outputs": [
        {
          "internalType": "bool",
          "name": "r",
          "type": "bool"
        }
      ],
      "stateMutability": "view",
      "type": "function"
    },
    {
      "inputs": [
        {
          "internalType": "bytes32",
          "name": "_key",
          "type": "bytes32"
        }
      ],
      "name": "getBytes",
      "outputs": [
        {
          "internalType": "bytes",
          "name": "",
          "type": "bytes"
        }
      ],
      "stateMutability": "view",
      "type": "function"
    },
    {
      "inputs": [
        {
          "internalType": "bytes32",
          "name": "_key",
          "type": "bytes32"
        }
      ],
      "name": "getBytes32",
      "outputs": [
        {
          "internalType": "bytes32",
          "name": "r",
          "type": "bytes32"
        }
      ],
      "stateMutability": "view",
      "type": "function"
    },
    {
      "inputs": [],
      "name": "getDeployedStatus",
      "outputs": [
        {
          "internalType": "bool",
          "name": "",
          "type": "bool"
        }
      ],
      "stateMutability": "view",
      "type": "function"
    },
    {
      "inputs": [],
      "name": "getGuardian",
      "outputs": [
        {
          "internalType": "address",
          "name": "",
          "type": "address"
        }
      ],
      "stateMutability": "view",
      "type": "function"
    },
    {
      "inputs": [
        {
          "internalType": "bytes32",
          "name": "_key",
          "type": "bytes32"
        }
      ],
      "name": "getInt",
      "outputs": [
        {
          "internalType": "int256",
          "name": "r",
          "type": "int256"
        }
      ],
      "stateMutability": "view",
      "type": "function"
    },
    {
      "inputs": [
        {
          "internalType": "bytes32",
          "name": "_key",
          "type": "bytes32"
        }
      ],
      "name": "getString",
      "outputs": [
        {
          "internalType": "string",
          "name": "",
          "type": "string"
        }
      ],
      "stateMutability": "view",
      "type": "function"
    },
    {
      "inputs": [
        {
          "internalType": "bytes32",
          "name": "_key",
          "type": "bytes32"
        }
      ],
      "name": "getUD60x18",
      "outputs": [
        {
          "internalType": "u60x18_t",
          "name": "r",
          "type": "uint256"
        }
      ],
      "stateMutability": "view",
      "type": "function"
    },
    {
      "inputs": [
        {
          "internalType": "bytes32",
          "name": "_key",
          "type": "bytes32"
        }
      ],
      "name": "getUint",
      "outputs": [
        {
          "internalType": "uint256",
          "name": "r",
          "type": "uint256"
        }
      ],
      "stateMutability": "view",
      "type": "function"
    },
    {
      "inputs": [
        {
          "internalType": "bytes32",
          "name": "_key",
          "type": "bytes32"
        },
        {
          "internalType": "address",
          "name": "_value",
          "type": "address"
        }
      ],
      "name": "setAddress",
      "outputs": [],
      "stateMutability": "nonpayable",
      "type": "function"
    },
    {
      "inputs": [
        {
          "internalType": "bytes32",
          "name": "_key",
          "type": "bytes32"
        },
        {
          "internalType": "bool",
          "name": "_value",
          "type": "bool"
        }
      ],
      "name": "setBool",
      "outputs": [],
      "stateMutability": "nonpayable",
      "type": "function"
    },
    {
      "inputs": [
        {
          "internalType": "bytes32",
          "name": "_key",
          "type": "bytes32"
        },
        {
          "internalType": "bytes",
          "name": "_value",
          "type": "bytes"
        }
      ],
      "name": "setBytes",
      "outputs": [],
      "stateMutability": "nonpayable",
      "type": "function"
    },
    {
      "inputs": [
        {
          "internalType": "bytes32",
          "name": "_key",
          "type": "bytes32"
        },
        {
          "internalType": "bytes32",
          "name": "_value",
          "type": "bytes32"
        }
      ],
      "name": "setBytes32",
      "outputs": [],
      "stateMutability": "nonpayable",
      "type": "function"
    },
    {
      "inputs": [],
      "name": "setDeployedStatus",
      "outputs": [],
      "stateMutability": "nonpayable",
      "type": "function"
    },
    {
      "inputs": [
        {
          "internalType": "address",
          "name": "_newAddress",
          "type": "address"
        }
      ],
      "name": "setGuardian",
      "outputs": [],
      "stateMutability": "nonpayable",
      "type": "function"
    },
    {
      "inputs": [
        {
          "internalType": "bytes32",
          "name": "_key",
          "type": "bytes32"
        },
        {
          "internalType": "int256",
          "name": "_value",
          "type": "int256"
        }
      ],
      "name": "setInt",
      "outputs": [],
      "stateMutability": "nonpayable",
      "type": "function"
    },
    {
      "inputs": [
        {
          "internalType": "bytes32",
          "name": "_key",
          "type": "bytes32"
        },
        {
          "internalType": "string",
          "name": "_value",
          "type": "string"
        }
      ],
      "name": "setString",
      "outputs": [],
      "stateMutability": "nonpayable",
      "type": "function"
    },
    {
      "inputs": [
        {
          "internalType": "bytes32",
          "name": "_key",
          "type": "bytes32"
        },
        {
          "internalType": "u60x18_t",
          "name": "_value",
          "type": "uint256"
        }
      ],
      "name": "setUD60x18",
      "outputs": [],
      "stateMutability": "nonpayable",
      "type": "function"
    },
    {
      "inputs": [
        {
          "internalType": "bytes32",
          "name": "_key",
          "type": "bytes32"
        },
        {
          "internalType": "uint256",
          "name": "_value",
          "type": "uint256"
        }
      ],
      "name": "setUint",
      "outputs": [],
      "stateMutability": "nonpayable",
      "type": "function"
    },
    {
      "inputs": [
        {
          "internalType": "bytes32",
          "name": "_key",
          "type": "bytes32"
        },
        {
          "internalType": "u60x18_t",
          "name": "_amount",
          "type": "uint256"
        }
      ],
      "name": "subUD60x18",
      "outputs": [],
      "stateMutability": "nonpayable",
      "type": "function"
    },
    {
      "inputs": [
        {
          "internalType": "bytes32",
          "name": "_key",
          "type": "bytes32"
        },
        {
          "internalType": "uint256",
          "name": "_amount",
          "type": "uint256"
        }
      ],
      "name": "subUint",
      "outputs": [],
      "stateMutability": "nonpayable",
      "type": "function"
    }
  ],
  "bytecode": "60806040526008805460ff60a01b1916905534801561001d57600080fd5b50600780546001600160a01b03191633179055611d4f8061003f6000396000f3fe608060405234801561001057600080fd5b50600436106101fb5760003560e01c8063986e791a1161011a578063ca446dd9116100ad578063e2b202bf1161007c578063e2b202bf14610473578063ebb9d8c914610486578063f476c87f14610473578063f6bb3cc414610499578063febffd99146104ac57600080fd5b8063ca446dd91461042d578063d3d35b89146103fa578063dc97d96214610440578063e2a4853a1461046057600080fd5b8063abfdcced116100e9578063abfdcced146103d4578063adb353dc146103e7578063bd02d0f5146103fa578063c031a1801461041a57600080fd5b8063986e791a146103755780639db36c1a146102cd578063a6ed563e14610395578063a75b87d2146103c357600080fd5b80633cd7692e116101925780636e899550116101615780636e899550146103195780637ae1cfca1461032c5780638a0dac4a1461034f5780638c1600951461036257600080fd5b80633cd7692e146102cd5780633e49bed0146102e05780634e91db08146102f3578063616b59f61461030657600080fd5b806321f8a721116101ce57806321f8a721146102535780632c62ff2d146102945780632d50242e146102a75780632e28d084146102ba57600080fd5b80630b9adc57146102005780630e14a376146102155780631bed5241146102285780631e0ea61e1461024b575b600080fd5b61021361020e3660046119df565b6104b4565b005b6102136102233660046119df565b6105b3565b600854600160a01b900460ff165b60405190151581526020015b60405180910390f35b6102136106b6565b61027c6102613660046119df565b6000908152600460205260409020546001600160a01b031690565b6040516001600160a01b039091168152602001610242565b6102136102a23660046119df565b610795565b6102136102b53660046119f8565b610892565b6102136102c8366004611a63565b61098f565b6102136102db3660046119f8565b610a93565b6102136102ee3660046119f8565b610b92565b6102136103013660046119f8565b610c89565b6102136103143660046119df565b610d80565b610213610327366004611a63565b610e7f565b61023661033a3660046119df565b60009081526005602052604090205460ff1690565b61021361035d366004611acb565b610f7d565b6102136103703660046119df565b610ff3565b6103886103833660046119df565b6110e9565b6040516102429190611b3a565b6103b56103a33660046119df565b60009081526006602052604090205490565b604051908152602001610242565b6007546001600160a01b031661027c565b6102136103e2366004611b4d565b61118b565b6102136103f53660046119f8565b611290565b6103b56104083660046119df565b60009081526002602052604090205490565b6103886104283660046119df565b61138f565b61021361043b366004611b82565b6113ac565b6103b561044e3660046119df565b60009081526003602052604090205490565b61021361046e3660046119f8565b6114bf565b6102136104813660046119df565b6115b6565b6102136104943660046119f8565b6116ac565b6102136104a73660046119df565b6117ab565b6102136118a7565b600854600160a01b900460ff161515600114156105335760056000336040516020016104e09190611bae565b60408051601f198184030181529181528151602092830120835290820192909252016000205460ff1661052e5760405162461bcd60e51b815260040161052590611be7565b60405180910390fd5b6105a2565b60056000336040516020016105489190611bae565b60408051601f198184030181529181528151602092830120835290820192909252016000205460ff168061058657506007546001600160a01b031632145b6105a25760405162461bcd60e51b815260040161052590611c2b565b600090815260066020526040812055565b600854600160a01b900460ff161515600114156106295760056000336040516020016105df9190611bae565b60408051601f198184030181529181528151602092830120835290820192909252016000205460ff166106245760405162461bcd60e51b815260040161052590611be7565b610698565b600560003360405160200161063e9190611bae565b60408051601f198184030181529181528151602092830120835290820192909252016000205460ff168061067c57506007546001600160a01b031632145b6106985760405162461bcd60e51b815260040161052590611c2b565b600090815260046020526040902080546001600160a01b0319169055565b6008546001600160a01b031633146107295760405162461bcd60e51b815260206004820152603060248201527f436f6e6669726d6174696f6e206d75737420636f6d652066726f6d206e65772060448201526f677561726469616e206164647265737360801b6064820152608401610525565b60078054600880546001600160a01b038082166001600160a01b0319808616821790965594909116909155604080519190921680825260208201939093527fa14fc14d8620a708a896fd11392a235647d99385500a295f0d7da2a258b2e967910160405180910390a150565b600854600160a01b900460ff1615156001141561080b5760056000336040516020016107c19190611bae565b60408051601f198184030181529181528151602092830120835290820192909252016000205460ff166108065760405162461bcd60e51b815260040161052590611be7565b61087a565b60056000336040516020016108209190611bae565b60408051601f198184030181529181528151602092830120835290820192909252016000205460ff168061085e57506007546001600160a01b031632145b61087a5760405162461bcd60e51b815260040161052590611c2b565b6000908152600560205260409020805460ff19169055565b600854600160a01b900460ff161515600114156109085760056000336040516020016108be9190611bae565b60408051601f198184030181529181528151602092830120835290820192909252016000205460ff166109035760405162461bcd60e51b815260040161052590611be7565b610977565b600560003360405160200161091d9190611bae565b60408051601f198184030181529181528151602092830120835290820192909252016000205460ff168061095b57506007546001600160a01b031632145b6109775760405162461bcd60e51b815260040161052590611c2b565b805b6000928352600260205260409092209190915550565b600854600160a01b900460ff16151560011415610a055760056000336040516020016109bb9190611bae565b60408051601f198184030181529181528151602092830120835290820192909252016000205460ff16610a005760405162461bcd60e51b815260040161052590611be7565b610a74565b6005600033604051602001610a1a9190611bae565b60408051601f198184030181529181528151602092830120835290820192909252016000205460ff1680610a5857506007546001600160a01b031632145b610a745760405162461bcd60e51b815260040161052590611c2b565b6000838152600160205260409020610a8d908383611910565b50505050565b600854600160a01b900460ff16151560011415610b09576005600033604051602001610abf9190611bae565b60408051601f198184030181529181528151602092830120835290820192909252016000205460ff16610b045760405162461bcd60e51b815260040161052590611be7565b610b78565b6005600033604051602001610b1e9190611bae565b60408051601f198184030181529181528151602092830120835290820192909252016000205460ff1680610b5c57506007546001600160a01b031632145b610b785760405162461bcd60e51b815260040161052590611c2b565b806000838152600260205260409020546109799190611caf565b600854600160a01b900460ff16151560011415610c08576005600033604051602001610bbe9190611bae565b60408051601f198184030181529181528151602092830120835290820192909252016000205460ff16610c035760405162461bcd60e51b815260040161052590611be7565b610c77565b6005600033604051602001610c1d9190611bae565b60408051601f198184030181529181528151602092830120835290820192909252016000205460ff1680610c5b57506007546001600160a01b031632145b610c775760405162461bcd60e51b815260040161052590611c2b565b60009182526003602052604090912055565b600854600160a01b900460ff16151560011415610cff576005600033604051602001610cb59190611bae565b60408051601f198184030181529181528151602092830120835290820192909252016000205460ff16610cfa5760405162461bcd60e51b815260040161052590611be7565b610d6e565b6005600033604051602001610d149190611bae565b60408051601f198184030181529181528151602092830120835290820192909252016000205460ff1680610d5257506007546001600160a01b031632145b610d6e5760405162461bcd60e51b815260040161052590611c2b565b60009182526006602052604090912055565b600854600160a01b900460ff16151560011415610df6576005600033604051602001610dac9190611bae565b60408051601f198184030181529181528151602092830120835290820192909252016000205460ff16610df15760405162461bcd60e51b815260040161052590611be7565b610e65565b6005600033604051602001610e0b9190611bae565b60408051601f198184030181529181528151602092830120835290820192909252016000205460ff1680610e4957506007546001600160a01b031632145b610e655760405162461bcd60e51b815260040161052590611c2b565b6000818152600160205260408120610e7c91611994565b50565b600854600160a01b900460ff16151560011415610ef5576005600033604051602001610eab9190611bae565b60408051601f198184030181529181528151602092830120835290820192909252016000205460ff16610ef05760405162461bcd60e51b815260040161052590611be7565b610f64565b6005600033604051602001610f0a9190611bae565b60408051601f198184030181529181528151602092830120835290820192909252016000205460ff1680610f4857506007546001600160a01b031632145b610f645760405162461bcd60e51b815260040161052590611c2b565b6000838152602081905260409020610a8d908383611910565b6007546001600160a01b03163314610fd15760405162461bcd60e51b8152602060048201526017602482015276125cc81b9bdd0819dd585c991a585b881858d8dbdd5b9d604a1b6044820152606401610525565b600880546001600160a01b0319166001600160a01b0392909216919091179055565b600854600160a01b900460ff1615156001141561106957600560003360405160200161101f9190611bae565b60408051601f198184030181529181528151602092830120835290820192909252016000205460ff166110645760405162461bcd60e51b815260040161052590611be7565b6110d8565b600560003360405160200161107e9190611bae565b60408051601f198184030181529181528151602092830120835290820192909252016000205460ff16806110bc57506007546001600160a01b031632145b6110d85760405162461bcd60e51b815260040161052590611c2b565b600090815260036020526040812055565b600081815260208190526040902080546060919061110690611cc6565b80601f016020809104026020016040519081016040528092919081815260200182805461113290611cc6565b801561117f5780601f106111545761010080835404028352916020019161117f565b820191906000526020600020905b81548152906001019060200180831161116257829003601f168201915b50505050509050919050565b600854600160a01b900460ff161515600114156112015760056000336040516020016111b79190611bae565b60408051601f198184030181529181528151602092830120835290820192909252016000205460ff166111fc5760405162461bcd60e51b815260040161052590611be7565b611270565b60056000336040516020016112169190611bae565b60408051601f198184030181529181528151602092830120835290820192909252016000205460ff168061125457506007546001600160a01b031632145b6112705760405162461bcd60e51b815260040161052590611c2b565b600091825260056020526040909120805460ff1916911515919091179055565b600854600160a01b900460ff161515600114156113065760056000336040516020016112bc9190611bae565b60408051601f198184030181529181528151602092830120835290820192909252016000205460ff166113015760405162461bcd60e51b815260040161052590611be7565b611375565b600560003360405160200161131b9190611bae565b60408051601f198184030181529181528151602092830120835290820192909252016000205460ff168061135957506007546001600160a01b031632145b6113755760405162461bcd60e51b815260040161052590611c2b565b600082815260026020526040902054610979908290611d01565b600081815260016020526040902080546060919061110690611cc6565b600854600160a01b900460ff161515600114156114225760056000336040516020016113d89190611bae565b60408051601f198184030181529181528151602092830120835290820192909252016000205460ff1661141d5760405162461bcd60e51b815260040161052590611be7565b611491565b60056000336040516020016114379190611bae565b60408051601f198184030181529181528151602092830120835290820192909252016000205460ff168061147557506007546001600160a01b031632145b6114915760405162461bcd60e51b815260040161052590611c2b565b60009182526004602052604090912080546001600160a01b0319166001600160a01b03909216919091179055565b600854600160a01b900460ff161515600114156115355760056000336040516020016114eb9190611bae565b60408051601f198184030181529181528151602092830120835290820192909252016000205460ff166115305760405162461bcd60e51b815260040161052590611be7565b6115a4565b600560003360405160200161154a9190611bae565b60408051601f198184030181529181528151602092830120835290820192909252016000205460ff168061158857506007546001600160a01b031632145b6115a45760405162461bcd60e51b815260040161052590611c2b565b60009182526002602052604090912055565b600854600160a01b900460ff1615156001141561162c5760056000336040516020016115e29190611bae565b60408051601f198184030181529181528151602092830120835290820192909252016000205460ff166116275760405162461bcd60e51b815260040161052590611be7565b61169b565b60056000336040516020016116419190611bae565b60408051601f198184030181529181528151602092830120835290820192909252016000205460ff168061167f57506007546001600160a01b031632145b61169b5760405162461bcd60e51b815260040161052590611c2b565b600090815260026020526040812055565b600854600160a01b900460ff161515600114156117225760056000336040516020016116d89190611bae565b60408051601f198184030181529181528151602092830120835290820192909252016000205460ff1661171d5760405162461bcd60e51b815260040161052590611be7565b611791565b60056000336040516020016117379190611bae565b60408051601f198184030181529181528151602092830120835290820192909252016000205460ff168061177557506007546001600160a01b031632145b6117915760405162461bcd60e51b815260040161052590611c2b565b600082815260026020526040902054610979908290611caf565b600854600160a01b900460ff161515600114156118215760056000336040516020016117d79190611bae565b60408051601f198184030181529181528151602092830120835290820192909252016000205460ff1661181c5760405162461bcd60e51b815260040161052590611be7565b611890565b60056000336040516020016118369190611bae565b60408051601f198184030181529181528151602092830120835290820192909252016000205460ff168061187457506007546001600160a01b031632145b6118905760405162461bcd60e51b815260040161052590611c2b565b6000818152602081905260408120610e7c91611994565b6007546001600160a01b031633146118fb5760405162461bcd60e51b8152602060048201526017602482015276125cc81b9bdd0819dd585c991a585b881858d8dbdd5b9d604a1b6044820152606401610525565b6008805460ff60a01b1916600160a01b179055565b82805461191c90611cc6565b90600052602060002090601f01602090048101928261193e5760008555611984565b82601f106119575782800160ff19823516178555611984565b82800160010185558215611984579182015b82811115611984578235825591602001919060010190611969565b506119909291506119ca565b5090565b5080546119a090611cc6565b6000825580601f106119b0575050565b601f016020900490600052602060002090810190610e7c91905b5b8082111561199057600081556001016119cb565b6000602082840312156119f157600080fd5b5035919050565b60008060408385031215611a0b57600080fd5b50508035926020909101359150565b60008083601f840112611a2c57600080fd5b50813567ffffffffffffffff811115611a4457600080fd5b602083019150836020828501011115611a5c57600080fd5b9250929050565b600080600060408486031215611a7857600080fd5b83359250602084013567ffffffffffffffff811115611a9657600080fd5b611aa286828701611a1a565b9497909650939450505050565b80356001600160a01b0381168114611ac657600080fd5b919050565b600060208284031215611add57600080fd5b611ae682611aaf565b9392505050565b6000815180845260005b81811015611b1357602081850181015186830182015201611af7565b81811115611b25576000602083870101525b50601f01601f19169290920160200192915050565b602081526000611ae66020830184611aed565b60008060408385031215611b6057600080fd5b8235915060208301358015158114611b7757600080fd5b809150509250929050565b60008060408385031215611b9557600080fd5b82359150611ba560208401611aaf565b90509250929050565b7218dbdb9d1c9858dd0b9c9959da5cdd195c9959606a1b815260609190911b6bffffffffffffffffffffffff1916601382015260270190565b60208082526024908201527f496e76616c6964206f72206f75746461746564206e6574776f726b20636f6e746040820152631c9858dd60e21b606082015260800190565b60208082526048908201527f496e76616c6964206f72206f75746461746564206e6574776f726b20636f6e7460408201527f7261637420617474656d7074696e672061636365737320647572696e672064656060820152671c1b1bde5b595b9d60c21b608082015260a00190565b634e487b7160e01b600052601160045260246000fd5b600082821015611cc157611cc1611c99565b500390565b600181811c90821680611cda57607f821691505b60208210811415611cfb57634e487b7160e01b600052602260045260246000fd5b50919050565b60008219821115611d1457611d14611c99565b50019056fea26469706673582212205de505e74f4fe32a9c7e8bed618f91cc26a2f21bd0c7943e43b0e57ad19d0f9264736f6c634300080a0033",
  "bytecodeSha1": "71f7eef3ace428a80a6474b7cd4ebbe947842382",
  "compiler": {
    "evm_version": "istanbul",
    "optimizer": {
      "enabled": true,
      "runs": 200
    },
    "version": "0.8.10+commit.fc410830"
  },
  "contractName": "BeraStorage",
  "language": "Solidity",
  "natspec": {
    "kind": "dev",
    "methods": {
      "addUD60x18(bytes32,uint256)": {
        "params": {
          "_amount": "An amount to add to the record's value",
          "_key": "The key for the record"
        }
      },
      "addUint(bytes32,uint256)": {
        "params": {
          "_amount": "An amount to add to the record's value",
          "_key": "The key for the record"
        }
      },
      "constructor": {
        "details": "Construct TropicalStorage"
      },
      "deleteAddress(bytes32)": {
        "params": {
          "_key": "The key for the record"
        }
      },
      "deleteBool(bytes32)": {
        "params": {
          "_key": "The key for the record"
        }
      },
      "deleteBytes(bytes32)": {
        "params": {
          "_key": "The key for the record"
        }
      },
      "deleteBytes32(bytes32)": {
        "params": {
          "_key": "The key for the record"
        }
      },
      "deleteInt(bytes32)": {
        "params": {
          "_key": "The key for the record"
        }
      },
      "deleteString(bytes32)": {
        "params": {
          "_key": "The key for the record"
        }
      },
      "deleteUD60x18(bytes32)": {
        "params": {
          "_key": "The key for the record"
        }
      },
      "deleteUint(bytes32)": {
        "params": {
          "_key": "The key for the record"
        }
      },
      "getAddress(bytes32)": {
        "params": {
          "_key": "The key for the record"
        }
      },
      "getBool(bytes32)": {
        "params": {
          "_key": "The key for the record"
        }
      },
      "getBytes(bytes32)": {
        "params": {
          "_key": "The key for the record"
        }
      },
      "getBytes32(bytes32)": {
        "params": {
          "_key": "The key for the record"
        }
      },
      "getInt(bytes32)": {
        "params": {
          "_key": "The key for the record"
        }
      },
      "getString(bytes32)": {
        "params": {
          "_key": "The key for the record"
        }
      },
      "getUD60x18(bytes32)": {
        "params": {
          "_key": "The key for the record"
        }
      },
      "getUint(bytes32)": {
        "params": {
          "_key": "The key for the record"
        }
      },
      "setAddress(bytes32,address)": {
        "params": {
          "_key": "The key for the record"
        }
      },
      "setBool(bytes32,bool)": {
        "params": {
          "_key": "The key for the record"
        }
      },
      "setBytes(bytes32,bytes)": {
        "params": {
          "_key": "The key for the record"
        }
      },
      "setBytes32(bytes32,bytes32)": {
        "params": {
          "_key": "The key for the record"
        }
      },
      "setInt(bytes32,int256)": {
        "params": {
          "_key": "The key for the record"
        }
      },
      "setString(bytes32,string)": {
        "params": {
          "_key": "The key for the record"
        }
      },
      "setUint(bytes32,uint256)": {
        "params": {
          "_key": "The key for the record"
        }
      },
      "subUD60x18(bytes32,uint256)": {
        "params": {
          "_amount": "An amount to subtract from the record's value",
          "_key": "The key for the record"
        }
      },
      "subUint(bytes32,uint256)": {
        "params": {
          "_amount": "An amount to subtract from the record's value",
          "_key": "The key for the record"
        }
      }
    },
    "version": 1
  },
  "opcodes": "PUSH1 0x80 PUSH1 0x40 MSTORE CALLVALUE DUP1 ISZERO PUSH2 0x10 JUMPI PUSH1 0x0 DUP1 REVERT JUMPDEST POP PUSH1 0x4 CALLDATASIZE LT PUSH2 0x1FB JUMPI PUSH1 0x0 CALLDATALOAD PUSH1 0xE0 SHR DUP1 PUSH4 0x986E791A GT PUSH2 0x11A JUMPI DUP1 PUSH4 0xCA446DD9 GT PUSH2 0xAD JUMPI DUP1 PUSH4 0xE2B202BF GT PUSH2 0x7C JUMPI DUP1 PUSH4 0xE2B202BF EQ PUSH2 0x473 JUMPI DUP1 PUSH4 0xEBB9D8C9 EQ PUSH2 0x486 JUMPI DUP1 PUSH4 0xF476C87F EQ PUSH2 0x473 JUMPI DUP1 PUSH4 0xF6BB3CC4 EQ PUSH2 0x499 JUMPI DUP1 PUSH4 0xFEBFFD99 EQ PUSH2 0x4AC JUMPI PUSH1 0x0 DUP1 REVERT JUMPDEST DUP1 PUSH4 0xCA446DD9 EQ PUSH2 0x42D JUMPI DUP1 PUSH4 0xD3D35B89 EQ PUSH2 0x3FA JUMPI DUP1 PUSH4 0xDC97D962 EQ PUSH2 0x440 JUMPI DUP1 PUSH4 0xE2A4853A EQ PUSH2 0x460 JUMPI PUSH1 0x0 DUP1 REVERT JUMPDEST DUP1 PUSH4 0xABFDCCED GT PUSH2 0xE9 JUMPI DUP1 PUSH4 0xABFDCCED EQ PUSH2 0x3D4 JUMPI DUP1 PUSH4 0xADB353DC EQ PUSH2 0x3E7 JUMPI DUP1 PUSH4 0xBD02D0F5 EQ PUSH2 0x3FA JUMPI DUP1 PUSH4 0xC031A180 EQ PUSH2 0x41A JUMPI PUSH1 0x0 DUP1 REVERT JUMPDEST DUP1 PUSH4 0x986E791A EQ PUSH2 0x375 JUMPI DUP1 PUSH4 0x9DB36C1A EQ PUSH2 0x2CD JUMPI DUP1 PUSH4 0xA6ED563E EQ PUSH2 0x395 JUMPI DUP1 PUSH4 0xA75B87D2 EQ PUSH2 0x3C3 JUMPI PUSH1 0x0 DUP1 REVERT JUMPDEST DUP1 PUSH4 0x3CD7692E GT PUSH2 0x192 JUMPI DUP1 PUSH4 0x6E899550 GT PUSH2 0x161 JUMPI DUP1 PUSH4 0x6E899550 EQ PUSH2 0x319 JUMPI DUP1 PUSH4 0x7AE1CFCA EQ PUSH2 0x32C JUMPI DUP1 PUSH4 0x8A0DAC4A EQ PUSH2 0x34F JUMPI DUP1 PUSH4 0x8C160095 EQ PUSH2 0x362 JUMPI PUSH1 0x0 DUP1 REVERT JUMPDEST DUP1 PUSH4 0x3CD7692E EQ PUSH2 0x2CD JUMPI DUP1 PUSH4 0x3E49BED0 EQ PUSH2 0x2E0 JUMPI DUP1 PUSH4 0x4E91DB08 EQ PUSH2 0x2F3 JUMPI DUP1 PUSH4 0x616B59F6 EQ PUSH2 0x306 JUMPI PUSH1 0x0 DUP1 REVERT JUMPDEST DUP1 PUSH4 0x21F8A721 GT PUSH2 0x1CE JUMPI DUP1 PUSH4 0x21F8A721 EQ PUSH2 0x253 JUMPI DUP1 PUSH4 0x2C62FF2D EQ PUSH2 0x294 JUMPI DUP1 PUSH4 0x2D50242E EQ PUSH2 0x2A7 JUMPI DUP1 PUSH4 0x2E28D084 EQ PUSH2 0x2BA JUMPI PUSH1 0x0 DUP1 REVERT JUMPDEST DUP1 PUSH4 0xB9ADC57 EQ PUSH2 0x200 JUMPI DUP1 PUSH4 0xE14A376 EQ PUSH2 0x215 JUMPI DUP1 PUSH4 0x1BED5241 EQ PUSH2 0x228 JUMPI DUP1 PUSH4 0x1E0EA61E EQ PUSH2 0x24B JUMPI JUMPDEST PUSH1 0x0 DUP1 REVERT JUMPDEST PUSH2 0x213 PUSH2 0x20E CALLDATASIZE PUSH1 0x4 PUSH2 0x19DF JUMP JUMPDEST PUSH2 0x4B4 JUMP JUMPDEST STOP JUMPDEST PUSH2 0x213 PUSH2 0x223 CALLDATASIZE PUSH1 0x4 PUSH2 0x19DF JUMP JUMPDEST PUSH2 0x5B3 JUMP JUMPDEST PUSH1 0x8 SLOAD PUSH1 0x1 PUSH1 0xA0 SHL SWAP1 DIV PUSH1 0xFF AND JUMPDEST PUSH1 0x40 MLOAD SWAP1 ISZERO ISZERO DUP2 MSTORE PUSH1 0x20 ADD JUMPDEST PUSH1 0x40 MLOAD DUP1 SWAP2 SUB SWAP1 RETURN JUMPDEST PUSH2 0x213 PUSH2 0x6B6 JUMP JUMPDEST PUSH2 0x27C PUSH2 0x261 CALLDATASIZE PUSH1 0x4 PUSH2 0x19DF JUMP JUMPDEST PUSH1 0x0 SWAP1 DUP2 MSTORE PUSH1 0x4 PUSH1 0x20 MSTORE PUSH1 0x40 SWAP1 KECCAK256 SLOAD PUSH1 0x1 PUSH1 0x1 PUSH1 0xA0 SHL SUB AND SWAP1 JUMP JUMPDEST PUSH1 0x40 MLOAD PUSH1 0x1 PUSH1 0x1 PUSH1 0xA0 SHL SUB SWAP1 SWAP2 AND DUP2 MSTORE PUSH1 0x20 ADD PUSH2 0x242 JUMP JUMPDEST PUSH2 0x213 PUSH2 0x2A2 CALLDATASIZE PUSH1 0x4 PUSH2 0x19DF JUMP JUMPDEST PUSH2 0x795 JUMP JUMPDEST PUSH2 0x213 PUSH2 0x2B5 CALLDATASIZE PUSH1 0x4 PUSH2 0x19F8 JUMP JUMPDEST PUSH2 0x892 JUMP JUMPDEST PUSH2 0x213 PUSH2 0x2C8 CALLDATASIZE PUSH1 0x4 PUSH2 0x1A63 JUMP JUMPDEST PUSH2 0x98F JUMP JUMPDEST PUSH2 0x213 PUSH2 0x2DB CALLDATASIZE PUSH1 0x4 PUSH2 0x19F8 JUMP JUMPDEST PUSH2 0xA93 JUMP JUMPDEST PUSH2 0x213 PUSH2 0x2EE CALLDATASIZE PUSH1 0x4 PUSH2 0x19F8 JUMP JUMPDEST PUSH2 0xB92 JUMP JUMPDEST PUSH2 0x213 PUSH2 0x301 CALLDATASIZE PUSH1 0x4 PUSH2 0x19F8 JUMP JUMPDEST PUSH2 0xC89 JUMP JUMPDEST PUSH2 0x213 PUSH2 0x314 CALLDATASIZE PUSH1 0x4 PUSH2 0x19DF JUMP JUMPDEST PUSH2 0xD80 JUMP JUMPDEST PUSH2 0x213 PUSH2 0x327 CALLDATASIZE PUSH1 0x4 PUSH2 0x1A63 JUMP JUMPDEST PUSH2 0xE7F JUMP JUMPDEST PUSH2 0x236 PUSH2 0x33A CALLDATASIZE PUSH1 0x4 PUSH2 0x19DF JUMP JUMPDEST PUSH1 0x0 SWAP1 DUP2 MSTORE PUSH1 0x5 PUSH1 0x20 MSTORE PUSH1 0x40 SWAP1 KECCAK256 SLOAD PUSH1 0xFF AND SWAP1 JUMP JUMPDEST PUSH2 0x213 PUSH2 0x35D CALLDATASIZE PUSH1 0x4 PUSH2 0x1ACB JUMP JUMPDEST PUSH2 0xF7D JUMP JUMPDEST PUSH2 0x213 PUSH2 0x370 CALLDATASIZE PUSH1 0x4 PUSH2 0x19DF JUMP JUMPDEST PUSH2 0xFF3 JUMP JUMPDEST PUSH2 0x388 PUSH2 0x383 CALLDATASIZE PUSH1 0x4 PUSH2 0x19DF JUMP JUMPDEST PUSH2 0x10E9 JUMP JUMPDEST PUSH1 0x40 MLOAD PUSH2 0x242 SWAP2 SWAP1 PUSH2 0x1B3A JUMP JUMPDEST PUSH2 0x3B5 PUSH2 0x3A3 CALLDATASIZE PUSH1 0x4 PUSH2 0x19DF JUMP JUMPDEST PUSH1 0x0 SWAP1 DUP2 MSTORE PUSH1 0x6 PUSH1 0x20 MSTORE PUSH1 0x40 SWAP1 KECCAK256 SLOAD SWAP1 JUMP JUMPDEST PUSH1 0x40 MLOAD SWAP1 DUP2 MSTORE PUSH1 0x20 ADD PUSH2 0x242 JUMP JUMPDEST PUSH1 0x7 SLOAD PUSH1 0x1 PUSH1 0x1 PUSH1 0xA0 SHL SUB AND PUSH2 0x27C JUMP JUMPDEST PUSH2 0x213 PUSH2 0x3E2 CALLDATASIZE PUSH1 0x4 PUSH2 0x1B4D JUMP JUMPDEST PUSH2 0x118B JUMP JUMPDEST PUSH2 0x213 PUSH2 0x3F5 CALLDATASIZE PUSH1 0x4 PUSH2 0x19F8 JUMP JUMPDEST PUSH2 0x1290 JUMP JUMPDEST PUSH2 0x3B5 PUSH2 0x408 CALLDATASIZE PUSH1 0x4 PUSH2 0x19DF JUMP JUMPDEST PUSH1 0x0 SWAP1 DUP2 MSTORE PUSH1 0x2 PUSH1 0x20 MSTORE PUSH1 0x40 SWAP1 KECCAK256 SLOAD SWAP1 JUMP JUMPDEST PUSH2 0x388 PUSH2 0x428 CALLDATASIZE PUSH1 0x4 PUSH2 0x19DF JUMP JUMPDEST PUSH2 0x138F JUMP JUMPDEST PUSH2 0x213 PUSH2 0x43B CALLDATASIZE PUSH1 0x4 PUSH2 0x1B82 JUMP JUMPDEST PUSH2 0x13AC JUMP JUMPDEST PUSH2 0x3B5 PUSH2 0x44E CALLDATASIZE PUSH1 0x4 PUSH2 0x19DF JUMP JUMPDEST PUSH1 0x0 SWAP1 DUP2 MSTORE PUSH1 0x3 PUSH1 0x20 MSTORE PUSH1 0x40 SWAP1 KECCAK256 SLOAD SWAP1 JUMP JUMPDEST PUSH2 0x213 PUSH2 0x46E CALLDATASIZE PUSH1 0x4 PUSH2 0x19F8 JUMP JUMPDEST PUSH2 0x14BF JUMP JUMPDEST PUSH2 0x213 PUSH2 0x481 CALLDATASIZE PUSH1 0x4 PUSH2 0x19DF JUMP JUMPDEST PUSH2 0x15B6 JUMP JUMPDEST PUSH2 0x213 PUSH2 0x494 CALLDATASIZE PUSH1 0x4 PUSH2 0x19F8 JUMP JUMPDEST PUSH2 0x16AC JUMP JUMPDEST PUSH2 0x213 PUSH2 0x4A7 CALLDATASIZE PUSH1 0x4 PUSH2 0x19DF JUMP JUMPDEST PUSH2 0x17AB JUMP JUMPDEST PUSH2 0x213 PUSH2 0x18A7 JUMP JUMPDEST PUSH1 0x8 SLOAD PUSH1 0x1 PUSH1 0xA0 SHL SWAP1 DIV PUSH1 0xFF AND ISZERO ISZERO PUSH1 0x1 EQ ISZERO PUSH2 0x533 JUMPI PUSH1 0x5 PUSH1 0x0 CALLER PUSH1 0x40 MLOAD PUSH1 0x20 ADD PUSH2 0x4E0 SWAP2 SWAP1 PUSH2 0x1BAE JUMP JUMPDEST PUSH1 0x40 DUP1 MLOAD PUSH1 0x1F NOT DUP2 DUP5 SUB ADD DUP2 MSTORE SWAP2 DUP2 MSTORE DUP2 MLOAD PUSH1 0x20 SWAP3 DUP4 ADD KECCAK256 DUP4 MSTORE SWAP1 DUP3 ADD SWAP3 SWAP1 SWAP3 MSTORE ADD PUSH1 0x0 KECCAK256 SLOAD PUSH1 0xFF AND PUSH2 0x52E JUMPI PUSH1 0x40 MLOAD PUSH3 0x461BCD PUSH1 0xE5 SHL DUP2 MSTORE PUSH1 0x4 ADD PUSH2 0x525 SWAP1 PUSH2 0x1BE7 JUMP JUMPDEST PUSH1 0x40 MLOAD DUP1 SWAP2 SUB SWAP1 REVERT JUMPDEST PUSH2 0x5A2 JUMP JUMPDEST PUSH1 0x5 PUSH1 0x0 CALLER PUSH1 0x40 MLOAD PUSH1 0x20 ADD PUSH2 0x548 SWAP2 SWAP1 PUSH2 0x1BAE JUMP JUMPDEST PUSH1 0x40 DUP1 MLOAD PUSH1 0x1F NOT DUP2 DUP5 SUB ADD DUP2 MSTORE SWAP2 DUP2 MSTORE DUP2 MLOAD PUSH1 0x20 SWAP3 DUP4 ADD KECCAK256 DUP4 MSTORE SWAP1 DUP3 ADD SWAP3 SWAP1 SWAP3 MSTORE ADD PUSH1 0x0 KECCAK256 SLOAD PUSH1 0xFF AND DUP1 PUSH2 0x586 JUMPI POP PUSH1 0x7 SLOAD PUSH1 0x1 PUSH1 0x1 PUSH1 0xA0 SHL SUB AND ORIGIN EQ JUMPDEST PUSH2 0x5A2 JUMPI PUSH1 0x40 MLOAD PUSH3 0x461BCD PUSH1 0xE5 SHL DUP2 MSTORE PUSH1 0x4 ADD PUSH2 0x525 SWAP1 PUSH2 0x1C2B JUMP JUMPDEST PUSH1 0x0 SWAP1 DUP2 MSTORE PUSH1 0x6 PUSH1 0x20 MSTORE PUSH1 0x40 DUP2 KECCAK256 SSTORE JUMP JUMPDEST PUSH1 0x8 SLOAD PUSH1 0x1 PUSH1 0xA0 SHL SWAP1 DIV PUSH1 0xFF AND ISZERO ISZERO PUSH1 0x1 EQ ISZERO PUSH2 0x629 JUMPI PUSH1 0x5 PUSH1 0x0 CALLER PUSH1 0x40 MLOAD PUSH1 0x20 ADD PUSH2 0x5DF SWAP2 SWAP1 PUSH2 0x1BAE JUMP JUMPDEST PUSH1 0x40 DUP1 MLOAD PUSH1 0x1F NOT DUP2 DUP5 SUB ADD DUP2 MSTORE SWAP2 DUP2 MSTORE DUP2 MLOAD PUSH1 0x20 SWAP3 DUP4 ADD KECCAK256 DUP4 MSTORE SWAP1 DUP3 ADD SWAP3 SWAP1 SWAP3 MSTORE ADD PUSH1 0x0 KECCAK256 SLOAD PUSH1 0xFF AND PUSH2 0x624 JUMPI PUSH1 0x40 MLOAD PUSH3 0x461BCD PUSH1 0xE5 SHL DUP2 MSTORE PUSH1 0x4 ADD PUSH2 0x525 SWAP1 PUSH2 0x1BE7 JUMP JUMPDEST PUSH2 0x698 JUMP JUMPDEST PUSH1 0x5 PUSH1 0x0 CALLER PUSH1 0x40 MLOAD PUSH1 0x20 ADD PUSH2 0x63E SWAP2 SWAP1 PUSH2 0x1BAE JUMP JUMPDEST PUSH1 0x40 DUP1 MLOAD PUSH1 0x1F NOT DUP2 DUP5 SUB ADD DUP2 MSTORE SWAP2 DUP2 MSTORE DUP2 MLOAD PUSH1 0x20 SWAP3 DUP4 ADD KECCAK256 DUP4 MSTORE SWAP1 DUP3 ADD SWAP3 SWAP1 SWAP3 MSTORE ADD PUSH1 0x0 KECCAK256 SLOAD PUSH1 0xFF AND DUP1 PUSH2 0x67C JUMPI POP PUSH1 0x7 SLOAD PUSH1 0x1 PUSH1 0x1 PUSH1 0xA0 SHL SUB AND ORIGIN EQ JUMPDEST PUSH2 0x698 JUMPI PUSH1 0x40 MLOAD PUSH3 0x461BCD PUSH1 0xE5 SHL DUP2 MSTORE PUSH1 0x4 ADD PUSH2 0x525 SWAP1 PUSH2 0x1C2B JUMP JUMPDEST PUSH1 0x0 SWAP1 DUP2 MSTORE PUSH1 0x4 PUSH1 0x20 MSTORE PUSH1 0x40 SWAP1 KECCAK256 DUP1 SLOAD PUSH1 0x1 PUSH1 0x1 PUSH1 0xA0 SHL SUB NOT AND SWAP1 SSTORE JUMP JUMPDEST PUSH1 0x8 SLOAD PUSH1 0x1 PUSH1 0x1 PUSH1 0xA0 SHL SUB AND CALLER EQ PUSH2 0x729 JUMPI PUSH1 0x40 MLOAD PUSH3 0x461BCD PUSH1 0xE5 SHL DUP2 MSTORE PUSH1 0x20 PUSH1 0x4 DUP3 ADD MSTORE PUSH1 0x30 PUSH1 0x24 DUP3 ADD MSTORE PUSH32 0x436F6E6669726D6174696F6E206D75737420636F6D652066726F6D206E657720 PUSH1 0x44 DUP3 ADD MSTORE PUSH16 0x677561726469616E2061646472657373 PUSH1 0x80 SHL PUSH1 0x64 DUP3 ADD MSTORE PUSH1 0x84 ADD PUSH2 0x525 JUMP JUMPDEST PUSH1 0x7 DUP1 SLOAD PUSH1 0x8 DUP1 SLOAD PUSH1 0x1 PUSH1 0x1 PUSH1 0xA0 SHL SUB DUP1 DUP3 AND PUSH1 0x1 PUSH1 0x1 PUSH1 0xA0 SHL SUB NOT DUP1 DUP7 AND DUP3 OR SWAP1 SWAP7 SSTORE SWAP5 SWAP1 SWAP2 AND SWAP1 SWAP2 SSTORE PUSH1 0x40 DUP1 MLOAD SWAP2 SWAP1 SWAP3 AND DUP1 DUP3 MSTORE PUSH1 0x20 DUP3 ADD SWAP4 SWAP1 SWAP4 MSTORE PUSH32 0xA14FC14D8620A708A896FD11392A235647D99385500A295F0D7DA2A258B2E967 SWAP2 ADD PUSH1 0x40 MLOAD DUP1 SWAP2 SUB SWAP1 LOG1 POP JUMP JUMPDEST PUSH1 0x8 SLOAD PUSH1 0x1 PUSH1 0xA0 SHL SWAP1 DIV PUSH1 0xFF AND ISZERO ISZERO PUSH1 0x1 EQ ISZERO PUSH2 0x80B JUMPI PUSH1 0x5 PUSH1 0x0 CALLER PUSH1 0x40 MLOAD PUSH1 0x20 ADD PUSH2 0x7C1 SWAP2 SWAP1 PUSH2 0x1BAE JUMP JUMPDEST PUSH1 0x40 DUP1 MLOAD PUSH1 0x1F NOT DUP2 DUP5 SUB ADD DUP2 MSTORE SWAP2 DUP2 MSTORE DUP2 MLOAD PUSH1 0x20 SWAP3 DUP4 ADD KECCAK256 DUP4 MSTORE SWAP1 DUP3 ADD SWAP3 SWAP1 SWAP3 MSTORE ADD PUSH1 0x0 KECCAK256 SLOAD PUSH1 0xFF AND PUSH2 0x806 JUMPI PUSH1 0x40 MLOAD PUSH3 0x461BCD PUSH1 0xE5 SHL DUP2 MSTORE PUSH1 0x4 ADD PUSH2 0x525 SWAP1 PUSH2 0x1BE7 JUMP JUMPDEST PUSH2 0x87A JUMP JUMPDEST PUSH1 0x5 PUSH1 0x0 CALLER PUSH1 0x40 MLOAD PUSH1 0x20 ADD PUSH2 0x820 SWAP2 SWAP1 PUSH2 0x1BAE JUMP JUMPDEST PUSH1 0x40 DUP1 MLOAD PUSH1 0x1F NOT DUP2 DUP5 SUB ADD DUP2 MSTORE SWAP2 DUP2 MSTORE DUP2 MLOAD PUSH1 0x20 SWAP3 DUP4 ADD KECCAK256 DUP4 MSTORE SWAP1 DUP3 ADD SWAP3 SWAP1 SWAP3 MSTORE ADD PUSH1 0x0 KECCAK256 SLOAD PUSH1 0xFF AND DUP1 PUSH2 0x85E JUMPI POP PUSH1 0x7 SLOAD PUSH1 0x1 PUSH1 0x1 PUSH1 0xA0 SHL SUB AND ORIGIN EQ JUMPDEST PUSH2 0x87A JUMPI PUSH1 0x40 MLOAD PUSH3 0x461BCD PUSH1 0xE5 SHL DUP2 MSTORE PUSH1 0x4 ADD PUSH2 0x525 SWAP1 PUSH2 0x1C2B JUMP JUMPDEST PUSH1 0x0 SWAP1 DUP2 MSTORE PUSH1 0x5 PUSH1 0x20 MSTORE PUSH1 0x40 SWAP1 KECCAK256 DUP1 SLOAD PUSH1 0xFF NOT AND SWAP1 SSTORE JUMP JUMPDEST PUSH1 0x8 SLOAD PUSH1 0x1 PUSH1 0xA0 SHL SWAP1 DIV PUSH1 0xFF AND ISZERO ISZERO PUSH1 0x1 EQ ISZERO PUSH2 0x908 JUMPI PUSH1 0x5 PUSH1 0x0 CALLER PUSH1 0x40 MLOAD PUSH1 0x20 ADD PUSH2 0x8BE SWAP2 SWAP1 PUSH2 0x1BAE JUMP JUMPDEST PUSH1 0x40 DUP1 MLOAD PUSH1 0x1F NOT DUP2 DUP5 SUB ADD DUP2 MSTORE SWAP2 DUP2 MSTORE DUP2 MLOAD PUSH1 0x20 SWAP3 DUP4 ADD KECCAK256 DUP4 MSTORE SWAP1 DUP3 ADD SWAP3 SWAP1 SWAP3 MSTORE ADD PUSH1 0x0 KECCAK256 SLOAD PUSH1 0xFF AND PUSH2 0x903 JUMPI PUSH1 0x40 MLOAD PUSH3 0x461BCD PUSH1 0xE5 SHL DUP2 MSTORE PUSH1 0x4 ADD PUSH2 0x525 SWAP1 PUSH2 0x1BE7 JUMP JUMPDEST PUSH2 0x977 JUMP JUMPDEST PUSH1 0x5 PUSH1 0x0 CALLER PUSH1 0x40 MLOAD PUSH1 0x20 ADD PUSH2 0x91D SWAP2 SWAP1 PUSH2 0x1BAE JUMP JUMPDEST PUSH1 0x40 DUP1 MLOAD PUSH1 0x1F NOT DUP2 DUP5 SUB ADD DUP2 MSTORE SWAP2 DUP2 MSTORE DUP2 MLOAD PUSH1 0x20 SWAP3 DUP4 ADD KECCAK256 DUP4 MSTORE SWAP1 DUP3 ADD SWAP3 SWAP1 SWAP3 MSTORE ADD PUSH1 0x0 KECCAK256 SLOAD PUSH1 0xFF AND DUP1 PUSH2 0x95B JUMPI POP PUSH1 0x7 SLOAD PUSH1 0x1 PUSH1 0x1 PUSH1 0xA0 SHL SUB AND ORIGIN EQ JUMPDEST PUSH2 0x977 JUMPI PUSH1 0x40 MLOAD PUSH3 0x461BCD PUSH1 0xE5 SHL DUP2 MSTORE PUSH1 0x4 ADD PUSH2 0x525 SWAP1 PUSH2 0x1C2B JUMP JUMPDEST DUP1 JUMPDEST PUSH1 0x0 SWAP3 DUP4 MSTORE PUSH1 0x2 PUSH1 0x20 MSTORE PUSH1 0x40 SWAP1 SWAP3 KECCAK256 SWAP2 SWAP1 SWAP2 SSTORE POP JUMP JUMPDEST PUSH1 0x8 SLOAD PUSH1 0x1 PUSH1 0xA0 SHL SWAP1 DIV PUSH1 0xFF AND ISZERO ISZERO PUSH1 0x1 EQ ISZERO PUSH2 0xA05 JUMPI PUSH1 0x5 PUSH1 0x0 CALLER PUSH1 0x40 MLOAD PUSH1 0x20 ADD PUSH2 0x9BB SWAP2 SWAP1 PUSH2 0x1BAE JUMP JUMPDEST PUSH1 0x40 DUP1 MLOAD PUSH1 0x1F NOT DUP2 DUP5 SUB ADD DUP2 MSTORE SWAP2 DUP2 MSTORE DUP2 MLOAD PUSH1 0x20 SWAP3 DUP4 ADD KECCAK256 DUP4 MSTORE SWAP1 DUP3 ADD SWAP3 SWAP1 SWAP3 MSTORE ADD PUSH1 0x0 KECCAK256 SLOAD PUSH1 0xFF AND PUSH2 0xA00 JUMPI PUSH1 0x40 MLOAD PUSH3 0x461BCD PUSH1 0xE5 SHL DUP2 MSTORE PUSH1 0x4 ADD PUSH2 0x525 SWAP1 PUSH2 0x1BE7 JUMP JUMPDEST PUSH2 0xA74 JUMP JUMPDEST PUSH1 0x5 PUSH1 0x0 CALLER PUSH1 0x40 MLOAD PUSH1 0x20 ADD PUSH2 0xA1A SWAP2 SWAP1 PUSH2 0x1BAE JUMP JUMPDEST PUSH1 0x40 DUP1 MLOAD PUSH1 0x1F NOT DUP2 DUP5 SUB ADD DUP2 MSTORE SWAP2 DUP2 MSTORE DUP2 MLOAD PUSH1 0x20 SWAP3 DUP4 ADD KECCAK256 DUP4 MSTORE SWAP1 DUP3 ADD SWAP3 SWAP1 SWAP3 MSTORE ADD PUSH1 0x0 KECCAK256 SLOAD PUSH1 0xFF AND DUP1 PUSH2 0xA58 JUMPI POP PUSH1 0x7 SLOAD PUSH1 0x1 PUSH1 0x1 PUSH1 0xA0 SHL SUB AND ORIGIN EQ JUMPDEST PUSH2 0xA74 JUMPI PUSH1 0x40 MLOAD PUSH3 0x461BCD PUSH1 0xE5 SHL DUP2 MSTORE PUSH1 0x4 ADD PUSH2 0x525 SWAP1 PUSH2 0x1C2B JUMP JUMPDEST PUSH1 0x0 DUP4 DUP2 MSTORE PUSH1 0x1 PUSH1 0x20 MSTORE PUSH1 0x40 SWAP1 KECCAK256 PUSH2 0xA8D SWAP1 DUP4 DUP4 PUSH2 0x1910 JUMP JUMPDEST POP POP POP POP JUMP JUMPDEST PUSH1 0x8 SLOAD PUSH1 0x1 PUSH1 0xA0 SHL SWAP1 DIV PUSH1 0xFF AND ISZERO ISZERO PUSH1 0x1 EQ ISZERO PUSH2 0xB09 JUMPI PUSH1 0x5 PUSH1 0x0 CALLER PUSH1 0x40 MLOAD PUSH1 0x20 ADD PUSH2 0xABF SWAP2 SWAP1 PUSH2 0x1BAE JUMP JUMPDEST PUSH1 0x40 DUP1 MLOAD PUSH1 0x1F NOT DUP2 DUP5 SUB ADD DUP2 MSTORE SWAP2 DUP2 MSTORE DUP2 MLOAD PUSH1 0x20 SWAP3 DUP4 ADD KECCAK256 DUP4 MSTORE SWAP1 DUP3 ADD SWAP3 SWAP1 SWAP3 MSTORE ADD PUSH1 0x0 KECCAK256 SLOAD PUSH1 0xFF AND PUSH2 0xB04 JUMPI PUSH1 0x40 MLOAD PUSH3 0x461BCD PUSH1 0xE5 SHL DUP2 MSTORE PUSH1 0x4 ADD PUSH2 0x525 SWAP1 PUSH2 0x1BE7 JUMP JUMPDEST PUSH2 0xB78 JUMP JUMPDEST PUSH1 0x5 PUSH1 0x0 CALLER PUSH1 0x40 MLOAD PUSH1 0x20 ADD PUSH2 0xB1E SWAP2 SWAP1 PUSH2 0x1BAE JUMP JUMPDEST PUSH1 0x40 DUP1 MLOAD PUSH1 0x1F NOT DUP2 DUP5 SUB ADD DUP2 MSTORE SWAP2 DUP2 MSTORE DUP2 MLOAD PUSH1 0x20 SWAP3 DUP4 ADD KECCAK256 DUP4 MSTORE SWAP1 DUP3 ADD SWAP3 SWAP1 SWAP3 MSTORE ADD PUSH1 0x0 KECCAK256 SLOAD PUSH1 0xFF AND DUP1 PUSH2 0xB5C JUMPI POP PUSH1 0x7 SLOAD PUSH1 0x1 PUSH1 0x1 PUSH1 0xA0 SHL SUB AND ORIGIN EQ JUMPDEST PUSH2 0xB78 JUMPI PUSH1 0x40 MLOAD PUSH3 0x461BCD PUSH1 0xE5 SHL DUP2 MSTORE PUSH1 0x4 ADD PUSH2 0x525 SWAP1 PUSH2 0x1C2B JUMP JUMPDEST DUP1 PUSH1 0x0 DUP4 DUP2 MSTORE PUSH1 0x2 PUSH1 0x20 MSTORE PUSH1 0x40 SWAP1 KECCAK256 SLOAD PUSH2 0x979 SWAP2 SWAP1 PUSH2 0x1CAF JUMP JUMPDEST PUSH1 0x8 SLOAD PUSH1 0x1 PUSH1 0xA0 SHL SWAP1 DIV PUSH1 0xFF AND ISZERO ISZERO PUSH1 0x1 EQ ISZERO PUSH2 0xC08 JUMPI PUSH1 0x5 PUSH1 0x0 CALLER PUSH1 0x40 MLOAD PUSH1 0x20 ADD PUSH2 0xBBE SWAP2 SWAP1 PUSH2 0x1BAE JUMP JUMPDEST PUSH1 0x40 DUP1 MLOAD PUSH1 0x1F NOT DUP2 DUP5 SUB ADD DUP2 MSTORE SWAP2 DUP2 MSTORE DUP2 MLOAD PUSH1 0x20 SWAP3 DUP4 ADD KECCAK256 DUP4 MSTORE SWAP1 DUP3 ADD SWAP3 SWAP1 SWAP3 MSTORE ADD PUSH1 0x0 KECCAK256 SLOAD PUSH1 0xFF AND PUSH2 0xC03 JUMPI PUSH1 0x40 MLOAD PUSH3 0x461BCD PUSH1 0xE5 SHL DUP2 MSTORE PUSH1 0x4 ADD PUSH2 0x525 SWAP1 PUSH2 0x1BE7 JUMP JUMPDEST PUSH2 0xC77 JUMP JUMPDEST PUSH1 0x5 PUSH1 0x0 CALLER PUSH1 0x40 MLOAD PUSH1 0x20 ADD PUSH2 0xC1D SWAP2 SWAP1 PUSH2 0x1BAE JUMP JUMPDEST PUSH1 0x40 DUP1 MLOAD PUSH1 0x1F NOT DUP2 DUP5 SUB ADD DUP2 MSTORE SWAP2 DUP2 MSTORE DUP2 MLOAD PUSH1 0x20 SWAP3 DUP4 ADD KECCAK256 DUP4 MSTORE SWAP1 DUP3 ADD SWAP3 SWAP1 SWAP3 MSTORE ADD PUSH1 0x0 KECCAK256 SLOAD PUSH1 0xFF AND DUP1 PUSH2 0xC5B JUMPI POP PUSH1 0x7 SLOAD PUSH1 0x1 PUSH1 0x1 PUSH1 0xA0 SHL SUB AND ORIGIN EQ JUMPDEST PUSH2 0xC77 JUMPI PUSH1 0x40 MLOAD PUSH3 0x461BCD PUSH1 0xE5 SHL DUP2 MSTORE PUSH1 0x4 ADD PUSH2 0x525 SWAP1 PUSH2 0x1C2B JUMP JUMPDEST PUSH1 0x0 SWAP2 DUP3 MSTORE PUSH1 0x3 PUSH1 0x20 MSTORE PUSH1 0x40 SWAP1 SWAP2 KECCAK256 SSTORE JUMP JUMPDEST PUSH1 0x8 SLOAD PUSH1 0x1 PUSH1 0xA0 SHL SWAP1 DIV PUSH1 0xFF AND ISZERO ISZERO PUSH1 0x1 EQ ISZERO PUSH2 0xCFF JUMPI PUSH1 0x5 PUSH1 0x0 CALLER PUSH1 0x40 MLOAD PUSH1 0x20 ADD PUSH2 0xCB5 SWAP2 SWAP1 PUSH2 0x1BAE JUMP JUMPDEST PUSH1 0x40 DUP1 MLOAD PUSH1 0x1F NOT DUP2 DUP5 SUB ADD DUP2 MSTORE SWAP2 DUP2 MSTORE DUP2 MLOAD PUSH1 0x20 SWAP3 DUP4 ADD KECCAK256 DUP4 MSTORE SWAP1 DUP3 ADD SWAP3 SWAP1 SWAP3 MSTORE ADD PUSH1 0x0 KECCAK256 SLOAD PUSH1 0xFF AND PUSH2 0xCFA JUMPI PUSH1 0x40 MLOAD PUSH3 0x461BCD PUSH1 0xE5 SHL DUP2 MSTORE PUSH1 0x4 ADD PUSH2 0x525 SWAP1 PUSH2 0x1BE7 JUMP JUMPDEST PUSH2 0xD6E JUMP JUMPDEST PUSH1 0x5 PUSH1 0x0 CALLER PUSH1 0x40 MLOAD PUSH1 0x20 ADD PUSH2 0xD14 SWAP2 SWAP1 PUSH2 0x1BAE JUMP JUMPDEST PUSH1 0x40 DUP1 MLOAD PUSH1 0x1F NOT DUP2 DUP5 SUB ADD DUP2 MSTORE SWAP2 DUP2 MSTORE DUP2 MLOAD PUSH1 0x20 SWAP3 DUP4 ADD KECCAK256 DUP4 MSTORE SWAP1 DUP3 ADD SWAP3 SWAP1 SWAP3 MSTORE ADD PUSH1 0x0 KECCAK256 SLOAD PUSH1 0xFF AND DUP1 PUSH2 0xD52 JUMPI POP PUSH1 0x7 SLOAD PUSH1 0x1 PUSH1 0x1 PUSH1 0xA0 SHL SUB AND ORIGIN EQ JUMPDEST PUSH2 0xD6E JUMPI PUSH1 0x40 MLOAD PUSH3 0x461BCD PUSH1 0xE5 SHL DUP2 MSTORE PUSH1 0x4 ADD PUSH2 0x525 SWAP1 PUSH2 0x1C2B JUMP JUMPDEST PUSH1 0x0 SWAP2 DUP3 MSTORE PUSH1 0x6 PUSH1 0x20 MSTORE PUSH1 0x40 SWAP1 SWAP2 KECCAK256 SSTORE JUMP JUMPDEST PUSH1 0x8 SLOAD PUSH1 0x1 PUSH1 0xA0 SHL SWAP1 DIV PUSH1 0xFF AND ISZERO ISZERO PUSH1 0x1 EQ ISZERO PUSH2 0xDF6 JUMPI PUSH1 0x5 PUSH1 0x0 CALLER PUSH1 0x40 MLOAD PUSH1 0x20 ADD PUSH2 0xDAC SWAP2 SWAP1 PUSH2 0x1BAE JUMP JUMPDEST PUSH1 0x40 DUP1 MLOAD PUSH1 0x1F NOT DUP2 DUP5 SUB ADD DUP2 MSTORE SWAP2 DUP2 MSTORE DUP2 MLOAD PUSH1 0x20 SWAP3 DUP4 ADD KECCAK256 DUP4 MSTORE SWAP1 DUP3 ADD SWAP3 SWAP1 SWAP3 MSTORE ADD PUSH1 0x0 KECCAK256 SLOAD PUSH1 0xFF AND PUSH2 0xDF1 JUMPI PUSH1 0x40 MLOAD PUSH3 0x461BCD PUSH1 0xE5 SHL DUP2 MSTORE PUSH1 0x4 ADD PUSH2 0x525 SWAP1 PUSH2 0x1BE7 JUMP JUMPDEST PUSH2 0xE65 JUMP JUMPDEST PUSH1 0x5 PUSH1 0x0 CALLER PUSH1 0x40 MLOAD PUSH1 0x20 ADD PUSH2 0xE0B SWAP2 SWAP1 PUSH2 0x1BAE JUMP JUMPDEST PUSH1 0x40 DUP1 MLOAD PUSH1 0x1F NOT DUP2 DUP5 SUB ADD DUP2 MSTORE SWAP2 DUP2 MSTORE DUP2 MLOAD PUSH1 0x20 SWAP3 DUP4 ADD KECCAK256 DUP4 MSTORE SWAP1 DUP3 ADD SWAP3 SWAP1 SWAP3 MSTORE ADD PUSH1 0x0 KECCAK256 SLOAD PUSH1 0xFF AND DUP1 PUSH2 0xE49 JUMPI POP PUSH1 0x7 SLOAD PUSH1 0x1 PUSH1 0x1 PUSH1 0xA0 SHL SUB AND ORIGIN EQ JUMPDEST PUSH2 0xE65 JUMPI PUSH1 0x40 MLOAD PUSH3 0x461BCD PUSH1 0xE5 SHL DUP2 MSTORE PUSH1 0x4 ADD PUSH2 0x525 SWAP1 PUSH2 0x1C2B JUMP JUMPDEST PUSH1 0x0 DUP2 DUP2 MSTORE PUSH1 0x1 PUSH1 0x20 MSTORE PUSH1 0x40 DUP2 KECCAK256 PUSH2 0xE7C SWAP2 PUSH2 0x1994 JUMP JUMPDEST POP JUMP JUMPDEST PUSH1 0x8 SLOAD PUSH1 0x1 PUSH1 0xA0 SHL SWAP1 DIV PUSH1 0xFF AND ISZERO ISZERO PUSH1 0x1 EQ ISZERO PUSH2 0xEF5 JUMPI PUSH1 0x5 PUSH1 0x0 CALLER PUSH1 0x40 MLOAD PUSH1 0x20 ADD PUSH2 0xEAB SWAP2 SWAP1 PUSH2 0x1BAE JUMP JUMPDEST PUSH1 0x40 DUP1 MLOAD PUSH1 0x1F NOT DUP2 DUP5 SUB ADD DUP2 MSTORE SWAP2 DUP2 MSTORE DUP2 MLOAD PUSH1 0x20 SWAP3 DUP4 ADD KECCAK256 DUP4 MSTORE SWAP1 DUP3 ADD SWAP3 SWAP1 SWAP3 MSTORE ADD PUSH1 0x0 KECCAK256 SLOAD PUSH1 0xFF AND PUSH2 0xEF0 JUMPI PUSH1 0x40 MLOAD PUSH3 0x461BCD PUSH1 0xE5 SHL DUP2 MSTORE PUSH1 0x4 ADD PUSH2 0x525 SWAP1 PUSH2 0x1BE7 JUMP JUMPDEST PUSH2 0xF64 JUMP JUMPDEST PUSH1 0x5 PUSH1 0x0 CALLER PUSH1 0x40 MLOAD PUSH1 0x20 ADD PUSH2 0xF0A SWAP2 SWAP1 PUSH2 0x1BAE JUMP JUMPDEST PUSH1 0x40 DUP1 MLOAD PUSH1 0x1F NOT DUP2 DUP5 SUB ADD DUP2 MSTORE SWAP2 DUP2 MSTORE DUP2 MLOAD PUSH1 0x20 SWAP3 DUP4 ADD KECCAK256 DUP4 MSTORE SWAP1 DUP3 ADD SWAP3 SWAP1 SWAP3 MSTORE ADD PUSH1 0x0 KECCAK256 SLOAD PUSH1 0xFF AND DUP1 PUSH2 0xF48 JUMPI POP PUSH1 0x7 SLOAD PUSH1 0x1 PUSH1 0x1 PUSH1 0xA0 SHL SUB AND ORIGIN EQ JUMPDEST PUSH2 0xF64 JUMPI PUSH1 0x40 MLOAD PUSH3 0x461BCD PUSH1 0xE5 SHL DUP2 MSTORE PUSH1 0x4 ADD PUSH2 0x525 SWAP1 PUSH2 0x1C2B JUMP JUMPDEST PUSH1 0x0 DUP4 DUP2 MSTORE PUSH1 0x20 DUP2 SWAP1 MSTORE PUSH1 0x40 SWAP1 KECCAK256 PUSH2 0xA8D SWAP1 DUP4 DUP4 PUSH2 0x1910 JUMP JUMPDEST PUSH1 0x7 SLOAD PUSH1 0x1 PUSH1 0x1 PUSH1 0xA0 SHL SUB AND CALLER EQ PUSH2 0xFD1 JUMPI PUSH1 0x40 MLOAD PUSH3 0x461BCD PUSH1 0xE5 SHL DUP2 MSTORE PUSH1 0x20 PUSH1 0x4 DUP3 ADD MSTORE PUSH1 0x17 PUSH1 0x24 DUP3 ADD MSTORE PUSH23 0x125CC81B9BDD0819DD585C991A585B881858D8DBDD5B9D PUSH1 0x4A SHL PUSH1 0x44 DUP3 ADD MSTORE PUSH1 0x64 ADD PUSH2 0x525 JUMP JUMPDEST PUSH1 0x8 DUP1 SLOAD PUSH1 0x1 PUSH1 0x1 PUSH1 0xA0 SHL SUB NOT AND PUSH1 0x1 PUSH1 0x1 PUSH1 0xA0 SHL SUB SWAP3 SWAP1 SWAP3 AND SWAP2 SWAP1 SWAP2 OR SWAP1 SSTORE JUMP JUMPDEST PUSH1 0x8 SLOAD PUSH1 0x1 PUSH1 0xA0 SHL SWAP1 DIV PUSH1 0xFF AND ISZERO ISZERO PUSH1 0x1 EQ ISZERO PUSH2 0x1069 JUMPI PUSH1 0x5 PUSH1 0x0 CALLER PUSH1 0x40 MLOAD PUSH1 0x20 ADD PUSH2 0x101F SWAP2 SWAP1 PUSH2 0x1BAE JUMP JUMPDEST PUSH1 0x40 DUP1 MLOAD PUSH1 0x1F NOT DUP2 DUP5 SUB ADD DUP2 MSTORE SWAP2 DUP2 MSTORE DUP2 MLOAD PUSH1 0x20 SWAP3 DUP4 ADD KECCAK256 DUP4 MSTORE SWAP1 DUP3 ADD SWAP3 SWAP1 SWAP3 MSTORE ADD PUSH1 0x0 KECCAK256 SLOAD PUSH1 0xFF AND PUSH2 0x1064 JUMPI PUSH1 0x40 MLOAD PUSH3 0x461BCD PUSH1 0xE5 SHL DUP2 MSTORE PUSH1 0x4 ADD PUSH2 0x525 SWAP1 PUSH2 0x1BE7 JUMP JUMPDEST PUSH2 0x10D8 JUMP JUMPDEST PUSH1 0x5 PUSH1 0x0 CALLER PUSH1 0x40 MLOAD PUSH1 0x20 ADD PUSH2 0x107E SWAP2 SWAP1 PUSH2 0x1BAE JUMP JUMPDEST PUSH1 0x40 DUP1 MLOAD PUSH1 0x1F NOT DUP2 DUP5 SUB ADD DUP2 MSTORE SWAP2 DUP2 MSTORE DUP2 MLOAD PUSH1 0x20 SWAP3 DUP4 ADD KECCAK256 DUP4 MSTORE SWAP1 DUP3 ADD SWAP3 SWAP1 SWAP3 MSTORE ADD PUSH1 0x0 KECCAK256 SLOAD PUSH1 0xFF AND DUP1 PUSH2 0x10BC JUMPI POP PUSH1 0x7 SLOAD PUSH1 0x1 PUSH1 0x1 PUSH1 0xA0 SHL SUB AND ORIGIN EQ JUMPDEST PUSH2 0x10D8 JUMPI PUSH1 0x40 MLOAD PUSH3 0x461BCD PUSH1 0xE5 SHL DUP2 MSTORE PUSH1 0x4 ADD PUSH2 0x525 SWAP1 PUSH2 0x1C2B JUMP JUMPDEST PUSH1 0x0 SWAP1 DUP2 MSTORE PUSH1 0x3 PUSH1 0x20 MSTORE PUSH1 0x40 DUP2 KECCAK256 SSTORE JUMP JUMPDEST PUSH1 0x0 DUP2 DUP2 MSTORE PUSH1 0x20 DUP2 SWAP1 MSTORE PUSH1 0x40 SWAP1 KECCAK256 DUP1 SLOAD PUSH1 0x60 SWAP2 SWAP1 PUSH2 0x1106 SWAP1 PUSH2 0x1CC6 JUMP JUMPDEST DUP1 PUSH1 0x1F ADD PUSH1 0x20 DUP1 SWAP2 DIV MUL PUSH1 0x20 ADD PUSH1 0x40 MLOAD SWAP1 DUP2 ADD PUSH1 0x40 MSTORE DUP1 SWAP3 SWAP2 SWAP1 DUP2 DUP2 MSTORE PUSH1 0x20 ADD DUP3 DUP1 SLOAD PUSH2 0x1132 SWAP1 PUSH2 0x1CC6 JUMP JUMPDEST DUP1 ISZERO PUSH2 0x117F JUMPI DUP1 PUSH1 0x1F LT PUSH2 0x1154 JUMPI PUSH2 0x100 DUP1 DUP4 SLOAD DIV MUL DUP4 MSTORE SWAP2 PUSH1 0x20 ADD SWAP2 PUSH2 0x117F JUMP JUMPDEST DUP3 ADD SWAP2 SWAP1 PUSH1 0x0 MSTORE PUSH1 0x20 PUSH1 0x0 KECCAK256 SWAP1 JUMPDEST DUP2 SLOAD DUP2 MSTORE SWAP1 PUSH1 0x1 ADD SWAP1 PUSH1 0x20 ADD DUP1 DUP4 GT PUSH2 0x1162 JUMPI DUP3 SWAP1 SUB PUSH1 0x1F AND DUP3 ADD SWAP2 JUMPDEST POP POP POP POP POP SWAP1 POP SWAP2 SWAP1 POP JUMP JUMPDEST PUSH1 0x8 SLOAD PUSH1 0x1 PUSH1 0xA0 SHL SWAP1 DIV PUSH1 0xFF AND ISZERO ISZERO PUSH1 0x1 EQ ISZERO PUSH2 0x1201 JUMPI PUSH1 0x5 PUSH1 0x0 CALLER PUSH1 0x40 MLOAD PUSH1 0x20 ADD PUSH2 0x11B7 SWAP2 SWAP1 PUSH2 0x1BAE JUMP JUMPDEST PUSH1 0x40 DUP1 MLOAD PUSH1 0x1F NOT DUP2 DUP5 SUB ADD DUP2 MSTORE SWAP2 DUP2 MSTORE DUP2 MLOAD PUSH1 0x20 SWAP3 DUP4 ADD KECCAK256 DUP4 MSTORE SWAP1 DUP3 ADD SWAP3 SWAP1 SWAP3 MSTORE ADD PUSH1 0x0 KECCAK256 SLOAD PUSH1 0xFF AND PUSH2 0x11FC JUMPI PUSH1 0x40 MLOAD PUSH3 0x461BCD PUSH1 0xE5 SHL DUP2 MSTORE PUSH1 0x4 ADD PUSH2 0x525 SWAP1 PUSH2 0x1BE7 JUMP JUMPDEST PUSH2 0x1270 JUMP JUMPDEST PUSH1 0x5 PUSH1 0x0 CALLER PUSH1 0x40 MLOAD PUSH1 0x20 ADD PUSH2 0x1216 SWAP2 SWAP1 PUSH2 0x1BAE JUMP JUMPDEST PUSH1 0x40 DUP1 MLOAD PUSH1 0x1F NOT DUP2 DUP5 SUB ADD DUP2 MSTORE SWAP2 DUP2 MSTORE DUP2 MLOAD PUSH1 0x20 SWAP3 DUP4 ADD KECCAK256 DUP4 MSTORE SWAP1 DUP3 ADD SWAP3 SWAP1 SWAP3 MSTORE ADD PUSH1 0x0 KECCAK256 SLOAD PUSH1 0xFF AND DUP1 PUSH2 0x1254 JUMPI POP PUSH1 0x7 SLOAD PUSH1 0x1 PUSH1 0x1 PUSH1 0xA0 SHL SUB AND ORIGIN EQ JUMPDEST PUSH2 0x1270 JUMPI PUSH1 0x40 MLOAD PUSH3 0x461BCD PUSH1 0xE5 SHL DUP2 MSTORE PUSH1 0x4 ADD PUSH2 0x525 SWAP1 PUSH2 0x1C2B JUMP JUMPDEST PUSH1 0x0 SWAP2 DUP3 MSTORE PUSH1 0x5 PUSH1 0x20 MSTORE PUSH1 0x40 SWAP1 SWAP2 KECCAK256 DUP1 SLOAD PUSH1 0xFF NOT AND SWAP2 ISZERO ISZERO SWAP2 SWAP1 SWAP2 OR SWAP1 SSTORE JUMP JUMPDEST PUSH1 0x8 SLOAD PUSH1 0x1 PUSH1 0xA0 SHL SWAP1 DIV PUSH1 0xFF AND ISZERO ISZERO PUSH1 0x1 EQ ISZERO PUSH2 0x1306 JUMPI PUSH1 0x5 PUSH1 0x0 CALLER PUSH1 0x40 MLOAD PUSH1 0x20 ADD PUSH2 0x12BC SWAP2 SWAP1 PUSH2 0x1BAE JUMP JUMPDEST PUSH1 0x40 DUP1 MLOAD PUSH1 0x1F NOT DUP2 DUP5 SUB ADD DUP2 MSTORE SWAP2 DUP2 MSTORE DUP2 MLOAD PUSH1 0x20 SWAP3 DUP4 ADD KECCAK256 DUP4 MSTORE SWAP1 DUP3 ADD SWAP3 SWAP1 SWAP3 MSTORE ADD PUSH1 0x0 KECCAK256 SLOAD PUSH1 0xFF AND PUSH2 0x1301 JUMPI PUSH1 0x40 MLOAD PUSH3 0x461BCD PUSH1 0xE5 SHL DUP2 MSTORE PUSH1 0x4 ADD PUSH2 0x525 SWAP1 PUSH2 0x1BE7 JUMP JUMPDEST PUSH2 0x1375 JUMP JUMPDEST PUSH1 0x5 PUSH1 0x0 CALLER PUSH1 0x40 MLOAD PUSH1 0x20 ADD PUSH2 0x131B SWAP2 SWAP1 PUSH2 0x1BAE JUMP JUMPDEST PUSH1 0x40 DUP1 MLOAD PUSH1 0x1F NOT DUP2 DUP5 SUB ADD DUP2 MSTORE SWAP2 DUP2 MSTORE DUP2 MLOAD PUSH1 0x20 SWAP3 DUP4 ADD KECCAK256 DUP4 MSTORE SWAP1 DUP3 ADD SWAP3 SWAP1 SWAP3 MSTORE ADD PUSH1 0x0 KECCAK256 SLOAD PUSH1 0xFF AND DUP1 PUSH2 0x1359 JUMPI POP PUSH1 0x7 SLOAD PUSH1 0x1 PUSH1 0x1 PUSH1 0xA0 SHL SUB AND ORIGIN EQ JUMPDEST PUSH2 0x1375 JUMPI PUSH1 0x40 MLOAD PUSH3 0x461BCD PUSH1 0xE5 SHL DUP2 MSTORE PUSH1 0x4 ADD PUSH2 0x525 SWAP1 PUSH2 0x1C2B JUMP JUMPDEST PUSH1 0x0 DUP3 DUP2 MSTORE PUSH1 0x2 PUSH1 0x20 MSTORE PUSH1 0x40 SWAP1 KECCAK256 SLOAD PUSH2 0x979 SWAP1 DUP3 SWAP1 PUSH2 0x1D01 JUMP JUMPDEST PUSH1 0x0 DUP2 DUP2 MSTORE PUSH1 0x1 PUSH1 0x20 MSTORE PUSH1 0x40 SWAP1 KECCAK256 DUP1 SLOAD PUSH1 0x60 SWAP2 SWAP1 PUSH2 0x1106 SWAP1 PUSH2 0x1CC6 JUMP JUMPDEST PUSH1 0x8 SLOAD PUSH1 0x1 PUSH1 0xA0 SHL SWAP1 DIV PUSH1 0xFF AND ISZERO ISZERO PUSH1 0x1 EQ ISZERO PUSH2 0x1422 JUMPI PUSH1 0x5 PUSH1 0x0 CALLER PUSH1 0x40 MLOAD PUSH1 0x20 ADD PUSH2 0x13D8 SWAP2 SWAP1 PUSH2 0x1BAE JUMP JUMPDEST PUSH1 0x40 DUP1 MLOAD PUSH1 0x1F NOT DUP2 DUP5 SUB ADD DUP2 MSTORE SWAP2 DUP2 MSTORE DUP2 MLOAD PUSH1 0x20 SWAP3 DUP4 ADD KECCAK256 DUP4 MSTORE SWAP1 DUP3 ADD SWAP3 SWAP1 SWAP3 MSTORE ADD PUSH1 0x0 KECCAK256 SLOAD PUSH1 0xFF AND PUSH2 0x141D JUMPI PUSH1 0x40 MLOAD PUSH3 0x461BCD PUSH1 0xE5 SHL DUP2 MSTORE PUSH1 0x4 ADD PUSH2 0x525 SWAP1 PUSH2 0x1BE7 JUMP JUMPDEST PUSH2 0x1491 JUMP JUMPDEST PUSH1 0x5 PUSH1 0x0 CALLER PUSH1 0x40 MLOAD PUSH1 0x20 ADD PUSH2 0x1437 SWAP2 SWAP1 PUSH2 0x1BAE JUMP JUMPDEST PUSH1 0x40 DUP1 MLOAD PUSH1 0x1F NOT DUP2 DUP5 SUB ADD DUP2 MSTORE SWAP2 DUP2 MSTORE DUP2 MLOAD PUSH1 0x20 SWAP3 DUP4 ADD KECCAK256 DUP4 MSTORE SWAP1 DUP3 ADD SWAP3 SWAP1 SWAP3 MSTORE ADD PUSH1 0x0 KECCAK256 SLOAD PUSH1 0xFF AND DUP1 PUSH2 0x1475 JUMPI POP PUSH1 0x7 SLOAD PUSH1 0x1 PUSH1 0x1 PUSH1 0xA0 SHL SUB AND ORIGIN EQ JUMPDEST PUSH2 0x1491 JUMPI PUSH1 0x40 MLOAD PUSH3 0x461BCD PUSH1 0xE5 SHL DUP2 MSTORE PUSH1 0x4 ADD PUSH2 0x525 SWAP1 PUSH2 0x1C2B JUMP JUMPDEST PUSH1 0x0 SWAP2 DUP3 MSTORE PUSH1 0x4 PUSH1 0x20 MSTORE PUSH1 0x40 SWAP1 SWAP2 KECCAK256 DUP1 SLOAD PUSH1 0x1 PUSH1 0x1 PUSH1 0xA0 SHL SUB NOT AND PUSH1 0x1 PUSH1 0x1 PUSH1 0xA0 SHL SUB SWAP1 SWAP3 AND SWAP2 SWAP1 SWAP2 OR SWAP1 SSTORE JUMP JUMPDEST PUSH1 0x8 SLOAD PUSH1 0x1 PUSH1 0xA0 SHL SWAP1 DIV PUSH1 0xFF AND ISZERO ISZERO PUSH1 0x1 EQ ISZERO PUSH2 0x1535 JUMPI PUSH1 0x5 PUSH1 0x0 CALLER PUSH1 0x40 MLOAD PUSH1 0x20 ADD PUSH2 0x14EB SWAP2 SWAP1 PUSH2 0x1BAE JUMP JUMPDEST PUSH1 0x40 DUP1 MLOAD PUSH1 0x1F NOT DUP2 DUP5 SUB ADD DUP2 MSTORE SWAP2 DUP2 MSTORE DUP2 MLOAD PUSH1 0x20 SWAP3 DUP4 ADD KECCAK256 DUP4 MSTORE SWAP1 DUP3 ADD SWAP3 SWAP1 SWAP3 MSTORE ADD PUSH1 0x0 KECCAK256 SLOAD PUSH1 0xFF AND PUSH2 0x1530 JUMPI PUSH1 0x40 MLOAD PUSH3 0x461BCD PUSH1 0xE5 SHL DUP2 MSTORE PUSH1 0x4 ADD PUSH2 0x525 SWAP1 PUSH2 0x1BE7 JUMP JUMPDEST PUSH2 0x15A4 JUMP JUMPDEST PUSH1 0x5 PUSH1 0x0 CALLER PUSH1 0x40 MLOAD PUSH1 0x20 ADD PUSH2 0x154A SWAP2 SWAP1 PUSH2 0x1BAE JUMP JUMPDEST PUSH1 0x40 DUP1 MLOAD PUSH1 0x1F NOT DUP2 DUP5 SUB ADD DUP2 MSTORE SWAP2 DUP2 MSTORE DUP2 MLOAD PUSH1 0x20 SWAP3 DUP4 ADD KECCAK256 DUP4 MSTORE SWAP1 DUP3 ADD SWAP3 SWAP1 SWAP3 MSTORE ADD PUSH1 0x0 KECCAK256 SLOAD PUSH1 0xFF AND DUP1 PUSH2 0x1588 JUMPI POP PUSH1 0x7 SLOAD PUSH1 0x1 PUSH1 0x1 PUSH1 0xA0 SHL SUB AND ORIGIN EQ JUMPDEST PUSH2 0x15A4 JUMPI PUSH1 0x40 MLOAD PUSH3 0x461BCD PUSH1 0xE5 SHL DUP2 MSTORE PUSH1 0x4 ADD PUSH2 0x525 SWAP1 PUSH2 0x1C2B JUMP JUMPDEST PUSH1 0x0 SWAP2 DUP3 MSTORE PUSH1 0x2 PUSH1 0x20 MSTORE PUSH1 0x40 SWAP1 SWAP2 KECCAK256 SSTORE JUMP JUMPDEST PUSH1 0x8 SLOAD PUSH1 0x1 PUSH1 0xA0 SHL SWAP1 DIV PUSH1 0xFF AND ISZERO ISZERO PUSH1 0x1 EQ ISZERO PUSH2 0x162C JUMPI PUSH1 0x5 PUSH1 0x0 CALLER PUSH1 0x40 MLOAD PUSH1 0x20 ADD PUSH2 0x15E2 SWAP2 SWAP1 PUSH2 0x1BAE JUMP JUMPDEST PUSH1 0x40 DUP1 MLOAD PUSH1 0x1F NOT DUP2 DUP5 SUB ADD DUP2 MSTORE SWAP2 DUP2 MSTORE DUP2 MLOAD PUSH1 0x20 SWAP3 DUP4 ADD KECCAK256 DUP4 MSTORE SWAP1 DUP3 ADD SWAP3 SWAP1 SWAP3 MSTORE ADD PUSH1 0x0 KECCAK256 SLOAD PUSH1 0xFF AND PUSH2 0x1627 JUMPI PUSH1 0x40 MLOAD PUSH3 0x461BCD PUSH1 0xE5 SHL DUP2 MSTORE PUSH1 0x4 ADD PUSH2 0x525 SWAP1 PUSH2 0x1BE7 JUMP JUMPDEST PUSH2 0x169B JUMP JUMPDEST PUSH1 0x5 PUSH1 0x0 CALLER PUSH1 0x40 MLOAD PUSH1 0x20 ADD PUSH2 0x1641 SWAP2 SWAP1 PUSH2 0x1BAE JUMP JUMPDEST PUSH1 0x40 DUP1 MLOAD PUSH1 0x1F NOT DUP2 DUP5 SUB ADD DUP2 MSTORE SWAP2 DUP2 MSTORE DUP2 MLOAD PUSH1 0x20 SWAP3 DUP4 ADD KECCAK256 DUP4 MSTORE SWAP1 DUP3 ADD SWAP3 SWAP1 SWAP3 MSTORE ADD PUSH1 0x0 KECCAK256 SLOAD PUSH1 0xFF AND DUP1 PUSH2 0x167F JUMPI POP PUSH1 0x7 SLOAD PUSH1 0x1 PUSH1 0x1 PUSH1 0xA0 SHL SUB AND ORIGIN EQ JUMPDEST PUSH2 0x169B JUMPI PUSH1 0x40 MLOAD PUSH3 0x461BCD PUSH1 0xE5 SHL DUP2 MSTORE PUSH1 0x4 ADD PUSH2 0x525 SWAP1 PUSH2 0x1C2B JUMP JUMPDEST PUSH1 0x0 SWAP1 DUP2 MSTORE PUSH1 0x2 PUSH1 0x20 MSTORE PUSH1 0x40 DUP2 KECCAK256 SSTORE JUMP JUMPDEST PUSH1 0x8 SLOAD PUSH1 0x1 PUSH1 0xA0 SHL SWAP1 DIV PUSH1 0xFF AND ISZERO ISZERO PUSH1 0x1 EQ ISZERO PUSH2 0x1722 JUMPI PUSH1 0x5 PUSH1 0x0 CALLER PUSH1 0x40 MLOAD PUSH1 0x20 ADD PUSH2 0x16D8 SWAP2 SWAP1 PUSH2 0x1BAE JUMP JUMPDEST PUSH1 0x40 DUP1 MLOAD PUSH1 0x1F NOT DUP2 DUP5 SUB ADD DUP2 MSTORE SWAP2 DUP2 MSTORE DUP2 MLOAD PUSH1 0x20 SWAP3 DUP4 ADD KECCAK256 DUP4 MSTORE SWAP1 DUP3 ADD SWAP3 SWAP1 SWAP3 MSTORE ADD PUSH1 0x0 KECCAK256 SLOAD PUSH1 0xFF AND PUSH2 0x171D JUMPI PUSH1 0x40 MLOAD PUSH3 0x461BCD PUSH1 0xE5 SHL DUP2 MSTORE PUSH1 0x4 ADD PUSH2 0x525 SWAP1 PUSH2 0x1BE7 JUMP JUMPDEST PUSH2 0x1791 JUMP JUMPDEST PUSH1 0x5 PUSH1 0x0 CALLER PUSH1 0x40 MLOAD PUSH1 0x20 ADD PUSH2 0x1737 SWAP2 SWAP1 PUSH2 0x1BAE JUMP JUMPDEST PUSH1 0x40 DUP1 MLOAD PUSH1 0x1F NOT DUP2 DUP5 SUB ADD DUP2 MSTORE SWAP2 DUP2 MSTORE DUP2 MLOAD PUSH1 0x20 SWAP3 DUP4 ADD KECCAK256 DUP4 MSTORE SWAP1 DUP3 ADD SWAP3 SWAP1 SWAP3 MSTORE ADD PUSH1 0x0 KECCAK256 SLOAD PUSH1 0xFF AND DUP1 PUSH2 0x1775 JUMPI POP PUSH1 0x7 SLOAD PUSH1 0x1 PUSH1 0x1 PUSH1 0xA0 SHL SUB AND ORIGIN EQ JUMPDEST PUSH2 0x1791 JUMPI PUSH1 0x40 MLOAD PUSH3 0x461BCD PUSH1 0xE5 SHL DUP2 MSTORE PUSH1 0x4 ADD PUSH2 0x525 SWAP1 PUSH2 0x1C2B JUMP JUMPDEST PUSH1 0x0 DUP3 DUP2 MSTORE PUSH1 0x2 PUSH1 0x20 MSTORE PUSH1 0x40 SWAP1 KECCAK256 SLOAD PUSH2 0x979 SWAP1 DUP3 SWAP1 PUSH2 0x1CAF JUMP JUMPDEST PUSH1 0x8 SLOAD PUSH1 0x1 PUSH1 0xA0 SHL SWAP1 DIV PUSH1 0xFF AND ISZERO ISZERO PUSH1 0x1 EQ ISZERO PUSH2 0x1821 JUMPI PUSH1 0x5 PUSH1 0x0 CALLER PUSH1 0x40 MLOAD PUSH1 0x20 ADD PUSH2 0x17D7 SWAP2 SWAP1 PUSH2 0x1BAE JUMP JUMPDEST PUSH1 0x40 DUP1 MLOAD PUSH1 0x1F NOT DUP2 DUP5 SUB ADD DUP2 MSTORE SWAP2 DUP2 MSTORE DUP2 MLOAD PUSH1 0x20 SWAP3 DUP4 ADD KECCAK256 DUP4 MSTORE SWAP1 DUP3 ADD SWAP3 SWAP1 SWAP3 MSTORE ADD PUSH1 0x0 KECCAK256 SLOAD PUSH1 0xFF AND PUSH2 0x181C JUMPI PUSH1 0x40 MLOAD PUSH3 0x461BCD PUSH1 0xE5 SHL DUP2 MSTORE PUSH1 0x4 ADD PUSH2 0x525 SWAP1 PUSH2 0x1BE7 JUMP JUMPDEST PUSH2 0x1890 JUMP JUMPDEST PUSH1 0x5 PUSH1 0x0 CALLER PUSH1 0x40 MLOAD PUSH1 0x20 ADD PUSH2 0x1836 SWAP2 SWAP1 PUSH2 0x1BAE JUMP JUMPDEST PUSH1 0x40 DUP1 MLOAD PUSH1 0x1F NOT DUP2 DUP5 SUB ADD DUP2 MSTORE SWAP2 DUP2 MSTORE DUP2 MLOAD PUSH1 0x20 SWAP3 DUP4 ADD KECCAK256 DUP4 MSTORE SWAP1 DUP3 ADD SWAP3 SWAP1 SWAP3 MSTORE ADD PUSH1 0x0 KECCAK256 SLOAD PUSH1 0xFF AND DUP1 PUSH2 0x1874 JUMPI POP PUSH1 0x7 SLOAD PUSH1 0x1 PUSH1 0x1 PUSH1 0xA0 SHL SUB AND ORIGIN EQ JUMPDEST PUSH2 0x1890 JUMPI PUSH1 0x40 MLOAD PUSH3 0x461BCD PUSH1 0xE5 SHL DUP2 MSTORE PUSH1 0x4 ADD PUSH2 0x525 SWAP1 PUSH2 0x1C2B JUMP JUMPDEST PUSH1 0x0 DUP2 DUP2 MSTORE PUSH1 0x20 DUP2 SWAP1 MSTORE PUSH1 0x40 DUP2 KECCAK256 PUSH2 0xE7C SWAP2 PUSH2 0x1994 JUMP JUMPDEST PUSH1 0x7 SLOAD PUSH1 0x1 PUSH1 0x1 PUSH1 0xA0 SHL SUB AND CALLER EQ PUSH2 0x18FB JUMPI PUSH1 0x40 MLOAD PUSH3 0x461BCD PUSH1 0xE5 SHL DUP2 MSTORE PUSH1 0x20 PUSH1 0x4 DUP3 ADD MSTORE PUSH1 0x17 PUSH1 0x24 DUP3 ADD MSTORE PUSH23 0x125CC81B9BDD0819DD585C991A585B881858D8DBDD5B9D PUSH1 0x4A SHL PUSH1 0x44 DUP3 ADD MSTORE PUSH1 0x64 ADD PUSH2 0x525 JUMP JUMPDEST PUSH1 0x8 DUP1 SLOAD PUSH1 0xFF PUSH1 0xA0 SHL NOT AND PUSH1 0x1 PUSH1 0xA0 SHL OR SWAP1 SSTORE JUMP JUMPDEST DUP3 DUP1 SLOAD PUSH2 0x191C SWAP1 PUSH2 0x1CC6 JUMP JUMPDEST SWAP1 PUSH1 0x0 MSTORE PUSH1 0x20 PUSH1 0x0 KECCAK256 SWAP1 PUSH1 0x1F ADD PUSH1 0x20 SWAP1 DIV DUP2 ADD SWAP3 DUP3 PUSH2 0x193E JUMPI PUSH1 0x0 DUP6 SSTORE PUSH2 0x1984 JUMP JUMPDEST DUP3 PUSH1 0x1F LT PUSH2 0x1957 JUMPI DUP3 DUP1 ADD PUSH1 0xFF NOT DUP3 CALLDATALOAD AND OR DUP6 SSTORE PUSH2 0x1984 JUMP JUMPDEST DUP3 DUP1 ADD PUSH1 0x1 ADD DUP6 SSTORE DUP3 ISZERO PUSH2 0x1984 JUMPI SWAP2 DUP3 ADD JUMPDEST DUP3 DUP2 GT ISZERO PUSH2 0x1984 JUMPI DUP3 CALLDATALOAD DUP3 SSTORE SWAP2 PUSH1 0x20 ADD SWAP2 SWAP1 PUSH1 0x1 ADD SWAP1 PUSH2 0x1969 JUMP JUMPDEST POP PUSH2 0x1990 SWAP3 SWAP2 POP PUSH2 0x19CA JUMP JUMPDEST POP SWAP1 JUMP JUMPDEST POP DUP1 SLOAD PUSH2 0x19A0 SWAP1 PUSH2 0x1CC6 JUMP JUMPDEST PUSH1 0x0 DUP3 SSTORE DUP1 PUSH1 0x1F LT PUSH2 0x19B0 JUMPI POP POP JUMP JUMPDEST PUSH1 0x1F ADD PUSH1 0x20 SWAP1 DIV SWAP1 PUSH1 0x0 MSTORE PUSH1 0x20 PUSH1 0x0 KECCAK256 SWAP1 DUP2 ADD SWAP1 PUSH2 0xE7C SWAP2 SWAP1 JUMPDEST JUMPDEST DUP1 DUP3 GT ISZERO PUSH2 0x1990 JUMPI PUSH1 0x0 DUP2 SSTORE PUSH1 0x1 ADD PUSH2 0x19CB JUMP JUMPDEST PUSH1 0x0 PUSH1 0x20 DUP3 DUP5 SUB SLT ISZERO PUSH2 0x19F1 JUMPI PUSH1 0x0 DUP1 REVERT JUMPDEST POP CALLDATALOAD SWAP2 SWAP1 POP JUMP JUMPDEST PUSH1 0x0 DUP1 PUSH1 0x40 DUP4 DUP6 SUB SLT ISZERO PUSH2 0x1A0B JUMPI PUSH1 0x0 DUP1 REVERT JUMPDEST POP POP DUP1 CALLDATALOAD SWAP3 PUSH1 0x20 SWAP1 SWAP2 ADD CALLDATALOAD SWAP2 POP JUMP JUMPDEST PUSH1 0x0 DUP1 DUP4 PUSH1 0x1F DUP5 ADD SLT PUSH2 0x1A2C JUMPI PUSH1 0x0 DUP1 REVERT JUMPDEST POP DUP2 CALLDATALOAD PUSH8 0xFFFFFFFFFFFFFFFF DUP2 GT ISZERO PUSH2 0x1A44 JUMPI PUSH1 0x0 DUP1 REVERT JUMPDEST PUSH1 0x20 DUP4 ADD SWAP2 POP DUP4 PUSH1 0x20 DUP3 DUP6 ADD ADD GT ISZERO PUSH2 0x1A5C JUMPI PUSH1 0x0 DUP1 REVERT JUMPDEST SWAP3 POP SWAP3 SWAP1 POP JUMP JUMPDEST PUSH1 0x0 DUP1 PUSH1 0x0 PUSH1 0x40 DUP5 DUP7 SUB SLT ISZERO PUSH2 0x1A78 JUMPI PUSH1 0x0 DUP1 REVERT JUMPDEST DUP4 CALLDATALOAD SWAP3 POP PUSH1 0x20 DUP5 ADD CALLDATALOAD PUSH8 0xFFFFFFFFFFFFFFFF DUP2 GT ISZERO PUSH2 0x1A96 JUMPI PUSH1 0x0 DUP1 REVERT JUMPDEST PUSH2 0x1AA2 DUP7 DUP3 DUP8 ADD PUSH2 0x1A1A JUMP JUMPDEST SWAP5 SWAP8 SWAP1 SWAP7 POP SWAP4 SWAP5 POP POP POP POP JUMP JUMPDEST DUP1 CALLDATALOAD PUSH1 0x1 PUSH1 0x1 PUSH1 0xA0 SHL SUB DUP2 AND DUP2 EQ PUSH2 0x1AC6 JUMPI PUSH1 0x0 DUP1 REVERT JUMPDEST SWAP2 SWAP1 POP JUMP JUMPDEST PUSH1 0x0 PUSH1 0x20 DUP3 DUP5 SUB SLT ISZERO PUSH2 0x1ADD JUMPI PUSH1 0x0 DUP1 REVERT JUMPDEST PUSH2 0x1AE6 DUP3 PUSH2 0x1AAF JUMP JUMPDEST SWAP4 SWAP3 POP POP POP JUMP JUMPDEST PUSH1 0x0 DUP2 MLOAD DUP1 DUP5 MSTORE PUSH1 0x0 JUMPDEST DUP2 DUP2 LT ISZERO PUSH2 0x1B13 JUMPI PUSH1 0x20 DUP2 DUP6 ADD DUP2 ADD MLOAD DUP7 DUP4 ADD DUP3 ADD MSTORE ADD PUSH2 0x1AF7 JUMP JUMPDEST DUP2 DUP2 GT ISZERO PUSH2 0x1B25 JUMPI PUSH1 0x0 PUSH1 0x20 DUP4 DUP8 ADD ADD MSTORE JUMPDEST POP PUSH1 0x1F ADD PUSH1 0x1F NOT AND SWAP3 SWAP1 SWAP3 ADD PUSH1 0x20 ADD SWAP3 SWAP2 POP POP JUMP JUMPDEST PUSH1 0x20 DUP2 MSTORE PUSH1 0x0 PUSH2 0x1AE6 PUSH1 0x20 DUP4 ADD DUP5 PUSH2 0x1AED JUMP JUMPDEST PUSH1 0x0 DUP1 PUSH1 0x40 DUP4 DUP6 SUB SLT ISZERO PUSH2 0x1B60 JUMPI PUSH1 0x0 DUP1 REVERT JUMPDEST DUP3 CALLDATALOAD SWAP2 POP PUSH1 0x20 DUP4 ADD CALLDATALOAD DUP1 ISZERO ISZERO DUP2 EQ PUSH2 0x1B77 JUMPI PUSH1 0x0 DUP1 REVERT JUMPDEST DUP1 SWAP2 POP POP SWAP3 POP SWAP3 SWAP1 POP JUMP JUMPDEST PUSH1 0x0 DUP1 PUSH1 0x40 DUP4 DUP6 SUB SLT ISZERO PUSH2 0x1B95 JUMPI PUSH1 0x0 DUP1 REVERT JUMPDEST DUP3 CALLDATALOAD SWAP2 POP PUSH2 0x1BA5 PUSH1 0x20 DUP5 ADD PUSH2 0x1AAF JUMP JUMPDEST SWAP1 POP SWAP3 POP SWAP3 SWAP1 POP JUMP JUMPDEST PUSH19 0x18DBDB9D1C9858DD0B9C9959DA5CDD195C9959 PUSH1 0x6A SHL DUP2 MSTORE PUSH1 0x60 SWAP2 SWAP1 SWAP2 SHL PUSH12 0xFFFFFFFFFFFFFFFFFFFFFFFF NOT AND PUSH1 0x13 DUP3 ADD MSTORE PUSH1 0x27 ADD SWAP1 JUMP JUMPDEST PUSH1 0x20 DUP1 DUP3 MSTORE PUSH1 0x24 SWAP1 DUP3 ADD MSTORE PUSH32 0x496E76616C6964206F72206F75746461746564206E6574776F726B20636F6E74 PUSH1 0x40 DUP3 ADD MSTORE PUSH4 0x1C9858DD PUSH1 0xE2 SHL PUSH1 0x60 DUP3 ADD MSTORE PUSH1 0x80 ADD SWAP1 JUMP JUMPDEST PUSH1 0x20 DUP1 DUP3 MSTORE PUSH1 0x48 SWAP1 DUP3 ADD MSTORE PUSH32 0x496E76616C6964206F72206F75746461746564206E6574776F726B20636F6E74 PUSH1 0x40 DUP3 ADD MSTORE PUSH32 0x7261637420617474656D7074696E672061636365737320647572696E67206465 PUSH1 0x60 DUP3 ADD MSTORE PUSH8 0x1C1B1BDE5B595B9D PUSH1 0xC2 SHL PUSH1 0x80 DUP3 ADD MSTORE PUSH1 0xA0 ADD SWAP1 JUMP JUMPDEST PUSH4 0x4E487B71 PUSH1 0xE0 SHL PUSH1 0x0 MSTORE PUSH1 0x11 PUSH1 0x4 MSTORE PUSH1 0x24 PUSH1 0x0 REVERT JUMPDEST PUSH1 0x0 DUP3 DUP3 LT ISZERO PUSH2 0x1CC1 JUMPI PUSH2 0x1CC1 PUSH2 0x1C99 JUMP JUMPDEST POP SUB SWAP1 JUMP JUMPDEST PUSH1 0x1 DUP2 DUP2 SHR SWAP1 DUP3 AND DUP1 PUSH2 0x1CDA JUMPI PUSH1 0x7F DUP3 AND SWAP2 POP JUMPDEST PUSH1 0x20 DUP3 LT DUP2 EQ ISZERO PUSH2 0x1CFB JUMPI PUSH4 0x4E487B71 PUSH1 0xE0 SHL PUSH1 0x0 MSTORE PUSH1 0x22 PUSH1 0x4 MSTORE PUSH1 0x24 PUSH1 0x0 REVERT JUMPDEST POP SWAP2 SWAP1 POP JUMP JUMPDEST PUSH1 0x0 DUP3 NOT DUP3 GT ISZERO PUSH2 0x1D14 JUMPI PUSH2 0x1D14 PUSH2 0x1C99 JUMP JUMPDEST POP ADD SWAP1 JUMP INVALID LOG2 PUSH5 0x6970667358 0x22 SLT KECCAK256 0x5D 0xE5 SDIV 0xE7 0x4F 0x4F 0xE3 0x2A SWAP13 PUSH31 0x8BED618F91CC26A2F21BD0C7943E43B0E57AD19D0F9264736F6C634300080A STOP CALLER ",
  "sha1": "beb9f3ae5b73ccf7650564035555feeb657a06dc",
  "source": "// SPDX-License-Identifier: GPL-3.0-only\npragma solidity =0.8.10;\n\nimport { u60x18, u60x18_t } from \"./Math.sol\";\nimport { IBeraStorage } from \"../interfaces/IBeraStorage.sol\";\n\ncontract BeraStorage is IBeraStorage {\n    /* Events */\n    event GuardianChanged(address oldGuardian, address newGuardian);\n\n    /* Libraries  */\n    using u60x18 for uint256;\n    using u60x18 for u60x18_t;\n\n    /* Storage maps  */\n    mapping(bytes32 => string) private stringStorage;\n    mapping(bytes32 => bytes) private bytesStorage;\n    mapping(bytes32 => uint256) private uintStorage;\n    mapping(bytes32 => int256) private intStorage;\n    mapping(bytes32 => address) private addressStorage;\n    mapping(bytes32 => bool) private booleanStorage;\n    mapping(bytes32 => bytes32) private bytes32Storage;\n\n    // Guardian address\n    address guardian;\n    address newGuardian;\n\n    // Flag storage has been initialised\n    bool storageInit = false;\n\n    /// @dev Only allow access to approved cotracts\n    modifier onlyRegisteredContracts() {\n        if (storageInit == true) {\n            // Make sure the access is permitted to only contracts in our Dapp\n            require(\n                booleanStorage[keccak256(abi.encodePacked(\"contract.registered\", msg.sender))],\n                \"Invalid or outdated network contract\"\n            );\n        } else {\n            // tx.origin is only safe to use in this case for deployment since no external contracts are interacted with\n            require(\n                (booleanStorage[keccak256(abi.encodePacked(\"contract.registered\", msg.sender))] || tx.origin == guardian),\n                \"Invalid or outdated network contract attempting access during deployment\"\n            );\n        }\n        _;\n    }\n\n    /// @dev Construct TropicalStorage\n    constructor() {\n        // Set the guardian upon deployment\n        guardian = msg.sender;\n    }\n\n    // Get guardian address\n    function getGuardian() external view override returns (address) {\n        return guardian;\n    }\n\n    // Transfers guardianship to a new address\n    function setGuardian(address _newAddress) external override {\n        // Check tx comes from current guardian\n        require(msg.sender == guardian, \"Is not guardian account\");\n        // Store new address awaiting confirmation\n        newGuardian = _newAddress;\n    }\n\n    // Confirms change of guardian\n    function confirmGuardian() external override {\n        // Check tx came from new guardian address\n        require(msg.sender == newGuardian, \"Confirmation must come from new guardian address\");\n        // Store old guardian for event\n        address oldGuardian = guardian;\n        // Update guardian and clear storage\n        guardian = newGuardian;\n        delete newGuardian;\n        // Emit event\n        emit GuardianChanged(oldGuardian, guardian);\n    }\n\n    // Set this as being deployed now\n    function getDeployedStatus() external view override returns (bool) {\n        return storageInit;\n    }\n\n    // Set this as being deployed now\n    function setDeployedStatus() external {\n        // Only guardian can lock this down\n        require(msg.sender == guardian, \"Is not guardian account\");\n        // Set it now\n        storageInit = true;\n    }\n\n    /// @param _key The key for the record\n    function getAddress(bytes32 _key) external view override returns (address r) {\n        return addressStorage[_key];\n    }\n\n    /// @param _key The key for the record\n    function getUint(bytes32 _key) external view override returns (uint256 r) {\n        return uintStorage[_key];\n    }\n\n    /// @param _key The key for the record\n    function getUD60x18(bytes32 _key) external view override returns (u60x18_t r) {\n        return uintStorage[_key].asUD60x18();\n    }\n\n    /// @param _key The key for the record\n    function getString(bytes32 _key) external view override returns (string memory) {\n        return stringStorage[_key];\n    }\n\n    /// @param _key The key for the record\n    function getBytes(bytes32 _key) external view override returns (bytes memory) {\n        return bytesStorage[_key];\n    }\n\n    /// @param _key The key for the record\n    function getBool(bytes32 _key) external view override returns (bool r) {\n        return booleanStorage[_key];\n    }\n\n    /// @param _key The key for the record\n    function getInt(bytes32 _key) external view override returns (int256 r) {\n        return intStorage[_key];\n    }\n\n    /// @param _key The key for the record\n    function getBytes32(bytes32 _key) external view override returns (bytes32 r) {\n        return bytes32Storage[_key];\n    }\n\n    /// @param _key The key for the record\n    function setAddress(bytes32 _key, address _value) external override onlyRegisteredContracts {\n        addressStorage[_key] = _value;\n    }\n\n    /// @param _key The key for the record\n    function setUint(bytes32 _key, uint256 _value) external override onlyRegisteredContracts {\n        uintStorage[_key] = _value;\n    }\n\n    // @param _key The key for the record\n    function setUD60x18(bytes32 _key, u60x18_t _value) external override onlyRegisteredContracts {\n        uintStorage[_key] = _value.asUint();\n    }\n\n    /// @param _key The key for the record\n    function setString(bytes32 _key, string calldata _value) external override onlyRegisteredContracts {\n        stringStorage[_key] = _value;\n    }\n\n    /// @param _key The key for the record\n    function setBytes(bytes32 _key, bytes calldata _value) external override onlyRegisteredContracts {\n        bytesStorage[_key] = _value;\n    }\n\n    /// @param _key The key for the record\n    function setBool(bytes32 _key, bool _value) external override onlyRegisteredContracts {\n        booleanStorage[_key] = _value;\n    }\n\n    /// @param _key The key for the record\n    function setInt(bytes32 _key, int256 _value) external override onlyRegisteredContracts {\n        intStorage[_key] = _value;\n    }\n\n    /// @param _key The key for the record\n    function setBytes32(bytes32 _key, bytes32 _value) external override onlyRegisteredContracts {\n        bytes32Storage[_key] = _value;\n    }\n\n    /// @param _key The key for the record\n    function deleteAddress(bytes32 _key) external override onlyRegisteredContracts {\n        delete addressStorage[_key];\n    }\n\n    /// @param _key The key for the record\n    function deleteUint(bytes32 _key) external override onlyRegisteredContracts {\n        delete uintStorage[_key];\n    }\n\n    /// @param _key The key for the record\n    function deleteUD60x18(bytes32 _key) external override onlyRegisteredContracts {\n        delete uintStorage[_key];\n    }\n\n    /// @param _key The key for the record\n    function deleteString(bytes32 _key) external override onlyRegisteredContracts {\n        delete stringStorage[_key];\n    }\n\n    /// @param _key The key for the record\n    function deleteBytes(bytes32 _key) external override onlyRegisteredContracts {\n        delete bytesStorage[_key];\n    }\n\n    /// @param _key The key for the record\n    function deleteBool(bytes32 _key) external override onlyRegisteredContracts {\n        delete booleanStorage[_key];\n    }\n\n    /// @param _key The key for the record\n    function deleteInt(bytes32 _key) external override onlyRegisteredContracts {\n        delete intStorage[_key];\n    }\n\n    /// @param _key The key for the record\n    function deleteBytes32(bytes32 _key) external override onlyRegisteredContracts {\n        delete bytes32Storage[_key];\n    }\n\n    /// @param _key The key for the record\n    /// @param _amount An amount to add to the record's value\n    function addUint(bytes32 _key, uint256 _amount) external override onlyRegisteredContracts {\n        uintStorage[_key] = uintStorage[_key] + _amount;\n    }\n\n    /// @param _key The key for the record\n    /// @param _amount An amount to subtract from the record's value\n    function subUint(bytes32 _key, uint256 _amount) external override onlyRegisteredContracts {\n        uintStorage[_key] = uintStorage[_key] - _amount;\n    }\n\n    /// @param _key The key for the record\n    /// @param _amount An amount to add to the record's value\n    function addUD60x18(bytes32 _key, u60x18_t _amount) external override onlyRegisteredContracts {\n        uintStorage[_key] = uintStorage[_key] - _amount.asUint();\n    }\n\n    /// @param _key The key for the record\n    /// @param _amount An amount to subtract from the record's value\n    function subUD60x18(bytes32 _key, u60x18_t _amount) external override onlyRegisteredContracts {\n        uintStorage[_key] = uintStorage[_key] - _amount.asUint();\n    }\n}\n",
  "sourcePath": "contracts/BeraStorage.sol",
  "type": "contract"
}